:10000000FDC0000017C1000015C1000013C10000B1
:1000100011C100000FC100000C94130F0C94430F8A
:1000200009C1000007C1000005C1000003C10000B4
:1000300001C10000FFC00000FDC00000FBC00000C7
:10004000F9C00000F7C00000F5C00000F3C00000D8
:10005000F1C00000EFC00000EDC00000EBC00000E8
:100060000C9441100C944310E5C00000E3C0000064
:10007000E1C00000DFC00000DDC00000DBC0000008
:10008000D9C00000D7C00000D5C00000D3C0000018
:10009000D1C00000CFC00000CDC00000CBC0000028
:1000A000C9C00000C7C00000C5C00000C3C0000038
:1000B000C1C00000BFC00000BDC00000BBC0000048
:1000C000B9C00000B7C00000B5C00000B3C0000058
:1000D000B1C00000AFC00000ADC00000ABC0000068
:1000E000A9C00000A7C00000A5C00000A3C0000078
:1000F000A1C000009FC000009DC000009BC0000088
:1001000099C0000097C0000095C0000093C0000097
:1001100091C000008FC000008DC00000B7C7000074
:1001200089C0000087C0000085C0000083C00000B7
:1001300081C000007FC000007DC000007BC00000C7
:1001400079C0000077C0000075C000000C94B70FA4
:1001500071C000006FC000006DC000006BC00000E7
:1001600069C0000067C0000065C0000063C00000F7
:1001700061C000005FC000005DC000005BC0000007
:1001800059C0000057C0000055C0000053C0000017
:1001900051C000004FC000004DC000004BC0000027
:1001A00049C0000047C0000045C0000043C0000037
:1001B00041C000003FC000003DC000003BC0000047
:1001C00039C0000037C0000035C0000033C0000057
:1001D00031C000002FC000002DC000002BC0000067
:1001E00029C0000027C0000025C0000023C0000077
:1001F00021C000000C94111C0C94FC1C11241FBE87
:10020000CFEFCDBFDFE2DEBF11E2A0E0B0E2E4E677
:10021000FCE302C005900D92AE31B107D9F72DE293
:10022000AEE1B1E201C01D92A13AB207E1F768D494
:100230000C94301EE5CE9C0150E01816190624F0EF
:1002400031952195310951E080916B0090E08093C8
:10025000232190932421809123219091242196950C
:10026000982F882797958795809323219093242111
:1002700040916A008091232190912421840F911D47
:100280008093232190932421000080912321909139
:1002900024218217930720F180912321909124211A
:1002A000820F931F81159042A0F480912321909199
:1002B00024215115D1F0821B930B8093232190931D
:1002C000242180912321909124218F7780936A00AB
:1002D00008958FEF9FE18093232190932421089527
:1002E00010922321109224210895280F391F209362
:1002F00023213093242180912321909124218F77F1
:1003000080936A00089584E0809356008CE1B5D60E
:10031000809363008BEB8093660080E88093650098
:1003200081E08093600088ED84BF1092410083E0FB
:1003300080935000809151008330E1F7809150000C
:1003400081608093500088E1809355008091510036
:1003500080FFFCCF8091500080618093500080919D
:10036000510084FFFCCF88ED84BF84E0809340007F
:100370000895E0E7F0E085818E7F8583E0E0FAE094
:100380008FEB9DE586A397A380EE9EE280A391A3C9
:1003900082E0808308958091200A9091210A813E15
:1003A0002EE2920708F45EC02091292120936A0072
:1003B00020910520211561F08091052081508093C6
:1003C000052080910720909108200196E1F1089581
:1003D000885F9A42813D9740A0F31092222180913C
:1003E000252190912621A0912721B09128210196C5
:1003F000A11DB11D8093252190932621A093272133
:10040000B09328218091252190912621A091272128
:10041000B0912821892F9A2FAB2FBB278093A92138
:100420008091252190912621A0912721B09128210A
:100430008093A82186E080930520809107209091E9
:100440000820019621F680910A208F3F09F4BFCF42
:100450008091062081110FC08091062081508093E9
:1004600006200895803E2EE2920771F020912A2105
:1004700020936A009DCF8091140190911501809383
:10048000072090930820089580910520811509F494
:1004900098CF92CFCF93DF93C091200AD091210AB9
:1004A00080910320909104209E01281B390B2093FA
:1004B00020213093212180912221811118C0809127
:1004C0002021909121218E3C9F4FE4F480912021A6
:1004D000909121218B369F4FACF0809102208115A5
:1004E00009F46CC080910220815080930220809199
:1004F00022218130A1F1C0930320D0930420DF9109
:10050000CF9108958CE080930220809120219091DA
:1005100021218A369F4FD4F18FEF9FEF80931E21C8
:1005200090931F21809120219091212120911E21C3
:1005300030911F2160E370E00E94141E261B370BD0
:1005400020931E2130931F2180911E2190911F2105
:10055000009769F270DE80912221813061F68091EE
:10056000202190912121C397A4F480912021909182
:10057000212187399105BCF08FEF9FEF5CDEC0939E
:100580000320D0930420DF91CF91089581E090E083
:10059000C5CF80910220811549F0809102208150C1
:1005A00080930220A8CF81E090E0E8CF80916A009C
:1005B00080932A2183E0809322219DCF80916A003D
:1005C0008093292181E0809322218CE08093022076
:1005D0008ECF8091002090910120892B09F057C087
:1005E00080E490E080930020909301208091072088
:1005F00090910820019609F449C0809114019091CE
:10060000150120910A206EEE72E0263010F467E7A3
:1006100071E00E94001E20910720309108202817C9
:100620003907B0F4209107203091082028173907A6
:1006300079F028173907A8F1281B390B213031052B
:1006400039F080EC9DE58093360A9093370A08953F
:10065000209107203091082082179307B8F4209149
:100660000720309108202817390781F0281739070B
:10067000E8F4AC01421B530B9A012130310531F0F3
:100680008FEB9DE58093360A9093370A0895809109
:1006900000209091012001978093002090930120E9
:1006A0000895AC01421B530B9A01C8CF281B390B8C
:1006B000E4CFAC019C01260F371F461B570B8091DE
:1006C000200A9091210A82179307C8F78091200A87
:1006D0009091210A4817590790F70895E0E8F6E04D
:1006E0008FE0808385E0848308951F93CF93DF9309
:1006F000C0E4D0E0198180E4898340E250E06BE2FD
:1007000071E280E290E00E9479161983DF91CF9127
:100710001F910895CF93C091410080E480934100E0
:100720008BE491E20E948D1681E00E94B0168091C8
:10073000CF0187FDFCCFC0934100CF91089508956C
:100740000F931F939BEE9093842198E590938521BE
:100750002091772130917821209386212091772153
:100760003091782130938721909176219093882140
:1007700090917521909389219091BC2190938A2129
:100780009091742190938B2191E09093792108E1CD
:1007900015E028E030E044E851E260E00E94F11A00
:1007A000811107C01092792180916C21806880931B
:1007B0006C211F910F910895CF92DF92EF92FF92DB
:1007C0000F931F93CF93DF9300D00F92CDB7DEB777
:1007D00010927B2110927C2110927321109279212A
:1007E00010926C2110926D2110926E2110926F2147
:1007F0001092702180919421823089F0833009F425
:100800005FC0813051F10F900F900F90DF91CF9129
:100810001F910F91FF90EF90DF90CF90089587E8A0
:100820000E949C1B08E215E02EEE32E040EC55E2FF
:1008300060E087E80E94F11A811509F447C08AE850
:100840000F900F900F90DF91CF911F910F91FF901C
:10085000EF90DF90CF900C949C1B80ECE82E85E20B
:10086000F82E1A821B82CC24C394D12C8A818F57F4
:1008700089830E949C1B08E215E02DE730E0A70168
:1008800060E089810E94F11A81110CC080916C2175
:1008900096010A8002C0220F331F0A94E2F7822BCE
:1008A00080936C218A819B8101968A839B839DE73B
:1008B000E90EF11C8A819B810697C1F689E8C0CFB9
:1008C00088E80E949C1B10927A219DCF80916C2118
:1008D000816080936C21B3CF2091942190E02130EE
:1008E000A9F04EEE52E0849F9001859F300D949FB9
:1008F000300D1124F901E054FA4D2255374D80E0B6
:1009000091918927E217F307D9F7089520910A20DA
:10091000253038F727E731E0829FA001839F500DF3
:10092000929F500D1124FA01E054FA4DDA01A255BC
:10093000B74D495C584D80E091912D9192278927C0
:10094000E417F507C9F70895CF93C82F20917B21AD
:1009500030917C212F5F3F4F20937B2130937C216E
:1009600080917B2190917C218093772190937821B5
:1009700080E0B2DF8093762181E0AEDF8093752145
:1009800080910A208093742181E08093732180916B
:100990007921811511F0CF9108958C2FCF91D0CE70
:1009A0000F931F9390916F219F5F90936F218115FB
:1009B00029F010927A211F910F91089520917F21A3
:1009C00030918021409181215091822101EF14E0EA
:1009D00060E088E80E94F11A811559F31F910F9188
:1009E00008950F931F93909170219F5F90937021B2
:1009F000811106C080917D2190917E21892B29F45F
:100A000010927A211F910F91089520917D213091AC
:100A10007E2110927D2110927E2101EF14E040ECA6
:100A200055E260E088E80E94F11A8111EBCFE8CF2F
:100A300090916E219F5F90936E2110927921811188
:100A400004C080917321811101C00895842F78CE54
:100A50000F931F93742F90916D219F5F90936D2141
:100A6000811108C080919421813039F080919421C6
:100A7000823069F11F910F910895842F8158990B4D
:100A80009C014DE7429FC001439F900D112420918E
:100A90000A20253080F5743810F089589E4F6091F7
:100AA000BC2127E731E0629FA001639F500D112414
:100AB000480F591F40545A4D08E215E02DE730E029
:100AC00060E0872F0E94F11A1F910F9108952091E5
:100AD000BC218EEE92E0289FA001299F500D112489
:100AE00040545A4D08E215E02EEE32E060E087E80F
:100AF0000E94F11ABFCF6091BC212EEE32E0D3CF1D
:100B0000F4DD80912B21813009F456C087E0809379
:100B1000A2007894F8DB13DE0E94CB11C1D2E4D29C
:100B200060E080E027D29FD28CE093D20E94750FC4
:100B30000E9419100E943310D1DD89E0E4E0F1E257
:100B4000A5E9B1E201900D928A95E1F7000000005D
:100B50000000000000000000000000000000000095
:100B600000000000000000008091B021811571F3A9
:100B70008091B1218430F1F040F48230A9F08330CB
:100B800079F4C8D51092B021E1CF863089F0873052
:100B900019F40E945A0EF6CF8530A1F7D2D7F2CFC2
:100BA000811521F092D3EECFA2D4ECCFBBD2EACF05
:100BB000C9D7E8CFB0D6E6CF80E2EBE2F1E2ABE412
:100BC000B1E201900D928A95E1F710924B21C3E0BA
:100BD000A1DD8BDD80912B21811511F0CA95C1F724
:100BE0001CBEEEEFF0E4099591CF089508950F93A0
:100BF0001F938091140180939E2180911501809311
:100C00009F21809124018093A021809125018093D0
:100C1000A1218091200A8093AA218091210A8093AA
:100C2000AB2180911401909115018634914040F0E0
:100C30008091140190911501893A914008F451C0B6
:100C40008091BA2181115BC08091B921811531F069
:100C500080912221833009F465C01CDC8091B6218B
:100C600081111DC080919421813039F19091BC2176
:100C700081E091112EC08093BC2180919C2B811525
:100C800059F080919421823009F4F5C0833009F441
:100C900051C0813009F442C01F910F910895809195
:100CA0001401909115018093B7219093B82110926F
:100CB000B621809194218130C9F680910A2020913B
:100CC000140130911501853018F581E02737314046
:100CD00090F280E08093BC2180919C2B8115E1F201
:100CE000D0CF80911401909115018093B7219093FA
:100CF000B82100008091BA21811509F4A5CF39DB14
:100D00001092BA2181E08093B9211F910F9108952B
:100D100081E02E3E324008F4AECFDBCF89E81F9150
:100D20000F9112CE38DB55DC8091B621811509F484
:100D300099CFB5CF80917B2190917C2101968093B2
:100D40007B2190937C2180917A218111A5CF909174
:100D50000A20953008F493C02091140130911501B8
:100D60004CED55E0421B530B4D3D95E0590708F003
:100D7000A1C04E3E524008F0AFC06AEC78E0621B62
:100D8000730B2E5E324060547A4D609381217093D4
:100D9000822120937F213093802120917F213091E7
:100DA00080212E3E324008F48AC02EEE32E020939D
:100DB0007F213093802110927D2110927E212091FD
:100DC0007F2130918021232B81F020E030E0FB0156
:100DD000E20FF31F908189272F5F3F4F40917F21C2
:100DE000509180212417350790F320917D21309177
:100DF0007E21232B81F020E030E0F901E054FA4D10
:100E0000908189272F5F3F4F40917D2150917E2116
:100E10002417350790F39BEE90938C2197E59093E0
:100E20008D2120917B2130917C2120938E21209156
:100E30007B2130917C2130938F219EEE90939021E5
:100E400092E0909391218093922180910A20809347
:100E5000932181E080937A2100ED14E028E030E0D6
:100E60004CE851E260E088E80E94F11A811114CF49
:100E700010927A2111CF8AE81F910F9165CD409190
:100E8000BC212EEE32E0429FC001439F900D112401
:100E900080549A4D809381219093822120937F21C9
:100EA0003093802110927D2110927E218091BC216F
:100EB00013DDB1CF2EEE32E06EEE72E064CF4091E2
:100EC0007F21509180212EEE32E0241B350B2093A0
:100ED0007D2130937E2173CF6EEE72E0621B730B27
:100EE00022513D4F50CF80919421811102C080E06A
:100EF000089581E08093BA215FDC81E0089581301C
:100F000031F08230A1F0811571F080E0089582E027
:100F100080939421F2D081E080939C2B8093BA211E
:100F20004BDC81E0089581E080939421F3CF83E04E
:100F300080939421EFCF8130A1F0823069F081114C
:100F40000895809194218130D9F7109294211092C4
:100F50009C2B10927A210895809194218330A9F3DB
:100F6000089580919421823081F3089581E008955D
:100F700081E00895909171009D7F9093710010928F
:100F80000002623009F43EC09CE19093010290E4BB
:100F90009093020281112FC080E48093030261309C
:100FA00079F583E08093040282E08093CA01E0E255
:100FB000F0E0E4911092CA01E0930C028093CA0120
:100FC000E1E2F0E0E4911092CA01E0930D02109288
:100FD00018021092190281E08093000210922802F8
:100FE00083E8809328028FE28093290210922A02DC
:100FF00010922E02089580EC80930302613089F2F2
:1010000084E0D0CF9EE19093010290E4909302029D
:10101000811529F080EC8093030284E0C3CF909384
:10102000030284E0BFCFE0E0F2E010A2982F9C71B1
:10103000936890A3982F959595959595907186FBBB
:10104000880F880B80F98270892B81A312A216A2C7
:101050000895E0E0F2E010AA836880AB80E181AB04
:1010600012AA16AA0895E0E0F2E010A683E880A78D
:101070008FE281A712A616A60895AAECB1E092E02D
:101080009C93E82FF0E084911C9208958F930000C8
:1010900000000000000081E0809323028F911895EA
:1010A000CF93DF93E0E7F0E082818B7F8283C0E221
:1010B000D3E08DE0888380E4898389E08A8383E3B9
:1010C000DCDF888782E3D9DF898787E3D6DF8A87F9
:1010D00086E3D3DF8B87E0E2F6E080818360808364
:1010E0001482DF91CF910895E0E7F0E080818E7F58
:1010F000808383E880930001089583E88093000152
:1011000080910A20883038F480910A208093B121A0
:1011100081E08093B02108958093B12181E0809394
:10112000B021089510920A201092100180E480935B
:1011300010011092200180932001109230018093C1
:10114000300110924001809340011092BE21109214
:10115000BD211092BC211092B4211092B5211092A1
:10116000B2211092B3218091092081119BC081E0AE
:101170008093360184E0809330011092310129E59B
:101180002093320182E08093330180910C20909172
:101190000D2080933401909335018FEB91E2809381
:1011A00038019093390110923A018BE380933C010E
:1011B00083E080933D0110923E0190913001906850
:1011C000909330011092460194E290934001109266
:1011D0004101209342018093430120910E203091E0
:1011E0000F20209344013093450120EC33E22093FB
:1011F00048013093490110924A0199E390934C01C0
:1012000080934D0110924E0180914001806880933F
:1012100040011092100180E480931001809194218C
:10122000813009F445C084E08093100180919421BD
:10123000813009F445C083E08093110185E98093F2
:10124000120180E180931301809194218130D1F1CA
:1012500087E791E0809314019093150184E28093D5
:10126000180182E08093190110921A0180EC95E236
:1012700080931C0190931D0110921E0168EC70E098
:1012800084EF91E016DA88EC90E080930720909349
:10129000082081E08093062080911001806880936F
:1012A000100108951092360184E28093300165CFD9
:1012B00084E28093100180919421813009F0BBCFAA
:1012C00080E0BACF8EEE92E0C5CF31E030930A20B5
:1012D0001092100180E480931001109220018093FD
:1012E00020011092300180933001109240018093D0
:1012F00040011092BE211092BD211092BC2110928B
:10130000B4211092B5211092B2211092B321109203
:1013100030018093300124E020933001109231019C
:10132000109232018BE480933301109234011092B9
:101330003501109236018BE090E280933801909352
:10134000390110923A0180EA80933C0188E0809351
:101350003D0110923E0180913001806A80933001FE
:1013600085E58093A0088093A008809109208111D1
:10137000A4C030934601209340011092410189E5B9
:101380008093420182E08093430180910C209091F0
:101390000D2080934401909345018FEB91E280935F
:1013A00048019093490110924A018BE380934C01CC
:1013B00083E080934D0110924E018091400180683E
:1013C0008093400180919421813009F47CC084E0B5
:1013D0008093200180919421813009F47CC083E0C6
:1013E0008093210185E9809322018BE4809323017E
:1013F00080919421813009F477C087E791E0809350
:1014000024019093250180EA8093280188E080934D
:10141000290110922A018EEA98E280932C01909380
:101420002D0110922E0180919421813009F45AC02F
:1014300084E08093100180919421813009F450C0A0
:1014400083E08093110185E98093120180E180930C
:10145000130180919421813009F43FC087E791E026
:10146000809314019093150184E28093180182E027
:101470008093190110921A0180EC95E280931C016F
:1014800090931D0110921E0168EC70E084EF91E0D2
:1014900010D988EC90E0809307209093082081E099
:1014A00080930620809120018068809320018091A4
:1014B000100180688093100108951092460184E223
:1014C000809340015ACF84E280932001809194213F
:1014D000813009F084CF80E083CF8EEE92E0C0CFE0
:1014E00080E0AFCF84E2A5CF8EEE92E088CF82E09D
:1014F00080930A201092100180E4809310011092D2
:1015000020018093200110923001809330011092CD
:101510004001809340011092BE211092BD21109293
:10152000BC211092B4211092B5211092B2211092D8
:10153000B321809109208111D3C081E080933601CD
:1015400084E0809330011092310129E5209332012B
:1015500082E08093330180910C2090910D20809344
:101560003401909335018FEB91E280933801909391
:10157000390110923A018BE380933C0183E0809320
:101580003D0110923E01909130019068909330019E
:101590001092460194E290934001109241012093F1
:1015A00042018093430120910E2030910F2020931F
:1015B00044013093450120EC33E2209348013093FD
:1015C000490110924A0199E390934C0180934D0197
:1015D00010924E01809140018068809340011092EA
:1015E000100180E48093100180919421813009F4EE
:1015F0007DC084E08093100180919421813009F4B2
:101600007DC083E08093110185E98093120180E120
:101610008093130180919421813009F478C087E789
:1016200091E0809314019093150184E28093180156
:1016300082E08093190110921A0180EC95E2809368
:101640001C0190931D0110921E0180919421813004
:1016500009F45BC084E08093200180919421813063
:1016600009F451C083E08093210185E98093220130
:1016700080E18093230180919421813009F440C05E
:1016800087E791E0809324019093250184E3809380
:10169000280182E08093290110922A018EEA98E2C3
:1016A00080932C0190932D0110922E0168EC70E034
:1016B00084EF91E00E94590388EC90E0809307202A
:1016C0009093082081E0809306208091100180682B
:1016D00080931001809120018068809320010895FB
:1016E0001092360184E2809330012DCF84E2809302
:1016F000100180919421813009F083CF80E082CF66
:101700008EEE92E0BFCF80E0AECF84E2A4CF8EEE2B
:1017100092E087CF83E080930A201092100180E44A
:1017200080931001109220018093200110923001CB
:101730008093300110924001809340011092BE21AD
:101740001092BD211092BC211092B4211092B521AB
:101750001092B2211092B321809109208111C8C04A
:1017600081E08093460184E0809340011092410122
:1017700029E52093420182E08093430180910C206F
:1017800090910D2080934401909345018FEB91E25D
:10179000809348019093490110924A018BE3809312
:1017A0004C0183E080934D0110924E0190914001D5
:1017B0009068909340011092360194E2909330012A
:1017C00010923101209332018093330120910E2039
:1017D00030910F20209334013093350120EC33E217
:1017E000209338013093390110923A0199E3909394
:1017F0003C0180933D0110923E0180913001806850
:10180000809330011092200190E49093200184E0B5
:101810008093200110922101109222018BE4809389
:1018200023011092240110922501109226012BE031
:1018300030E2209328013093290110922A0180EA96
:1018400080932C0188E080932D0110922E018091CD
:101850002001806A8093200185E58093A008109282
:1018600010019093100180919421813009F446C0B9
:1018700084E08093100180919421813009F446C066
:1018800083E08093110185E9809312018BE48093BA
:101890001301809194218130D9F187E791E0809301
:1018A00014019093150180EA8093180188E08093D9
:1018B000190110921A0180EC95E280931C0190931B
:1018C0001D0110921E0168EC70E084EF91E00E940F
:1018D000590388EC90E0809307209093082081E0E2
:1018E00080930620809110018068809310010895F4
:1018F0001092460184E28093400138CF84E28093C5
:10190000100180919421813009F0BACF80E0B9CFE5
:101910008EEE92E0C4CF94E090930A2010921001D2
:1019200080E4809310011092200180932001109296
:101930003001809330011092400180934001109259
:10194000BE211092BD211092BC211092B4211092A0
:10195000B5211092B2211092B321109230018093E0
:1019600030019093300110923101109232018BE4DA
:101970008093330110923401109235011092360198
:101980002BE030E2209338013093390110923A0174
:1019900080EA80933C0188E080933D0110923E01F3
:1019A00080913001806A8093300185E58093A008A2
:1019B000809109208111ABC081E080934601909312
:1019C00040011092410189E58093420182E08093B9
:1019D000430180910C2090910D20809344019093BD
:1019E00045018FEB91E28093480190934901109259
:1019F0004A018BE380934C0183E080934D01109268
:101A00004E01809140018068809340018091942133
:101A1000813009F482C084E0809310018091942188
:101A2000813009F482C083E08093110185E98093BD
:101A300012018BE48093130180919421813009F489
:101A40007DC087E791E0809314019093150180EAAF
:101A50008093180188E08093190110921A0180EC9C
:101A600095E280931C0190931D0110921E018091BC
:101A70009421813009F460C084E08093200180913A
:101A80009421813009F456C083E08093210185E9D7
:101A9000809322018AE480932301809194218130F4
:101AA00009F445C087E791E08093240190932501D4
:101AB00083EC8093280188E08093290110922A0109
:101AC0008EEA98E280932C0190932D0110922E01C2
:101AD00068EC70E084EF91E00E94590388EC90E09C
:101AE000809307209093082081E0809306208091C6
:101AF000100180688093100180912001806880939C
:101B0000200180911001806180931001089510924E
:101B1000460184E28093400154CF84E28093100117
:101B200080919421813009F07ECF80E07DCF8EEED0
:101B300092E0BACF80E0A9CF84E29FCF8EEE92E010
:101B400082CFFFCF86E080930A201092100180E4BC
:101B50008093100110922001809320011092300197
:101B60008093300110924001809340011092BE2179
:101B70001092BD211092BC211092B4211092B52177
:101B80001092B2211092B3211092360194E29093F8
:101B900030011092310189E58093320183E0809316
:101BA000330120910E2030910F2020933401309387
:101BB000350120EC33E22093380130933901109243
:101BC0003A0129E320933C0180933D0110923E01AC
:101BD00080913001806880933001809109208111CB
:101BE00064C081E08093460184E0809340011092BC
:101BF000410189E58093420192E090934301209155
:101C00000C2030910D2020934401309345012FEB9F
:101C100031E2209348013093490110924A018BE34D
:101C200080934C0183E080934D0110924E0180918E
:101C300040018068809340011092100180E48093FD
:101C4000100184E2809310011092110125E9209384
:101C5000120120E1209313012CED35E020931401B3
:101C600030931501809318019093190110921A0175
:101C700080EC95E280931C0190931D0110921E014F
:101C800068EC70E084EF91E00E94590380E991E0F4
:101C9000809307209093082081E080930620809114
:101CA000100180688093100108951092460190936E
:101CB00040019DCF87E080930A201092100180E4BC
:101CC0008093100110922001809320011092300126
:101CD0008093300110924001809340011092BE2108
:101CE0001092BD211092BC211092B4211092B52106
:101CF0001092B2211092B3211092360194E2909387
:101D000030011092310189E58093320183E08093A4
:101D1000330120910E2030910F2020933401309315
:101D2000350120EC33E220933801309339011092D1
:101D30003A0129E320933C0180933D0110923E013A
:101D40008091300180688093300180910920811159
:101D500065C081E08093460184E080934001109249
:101D6000410189E58093420192E0909343012091E3
:101D70000C2030910D2020934401309345012FEB2E
:101D800031E2209348013093490110924A018BE3DC
:101D900080934C0183E080934D0110924E0180911D
:101DA00040018068809340011092100180E480938C
:101DB000100185E2809310011092110185E9809352
:101DC000120180E1809313012CED35E02093140182
:101DD0003093150184E280931801909319011092B9
:101DE0001A0180EC95E280931C0190931D011092E2
:101DF0001E0168EC70E084EF91E00E94590380E9D5
:101E000091E0809307209093082081E08093062042
:101E1000809110018068809310010895109246010E
:101E2000909340019CCF1F921FB61F9211248F9355
:101E30009F9381E080930301809194218130D1F0C0
:101E40001092100184E08093100187E791E0809365
:101E50001401909315018091BC21811111C08EEA6B
:101E600098E280931C0190931D018091100180687D
:101E7000809310019F918F911F901FBE1F90189506
:101E800080EC95E2EECF1F921FB61F9211248F9324
:101E90009F9382E080930301809194218130E1F04F
:101EA0001092200184E08093200187E791E08093E5
:101EB0002401909325018091BC21811113C085E6F6
:101EC00094E080549A4D80932C0190932D01809141
:101ED00020018068809320019F918F911F901FBEE9
:101EE0001F90189587E791E0ECCFE0E7F0E0838161
:101EF0008C7F838384818C7F848380818D7F8083AA
:101F0000E0E8F1E080EC8283128688EC8183118620
:101F1000A0E0B8E034E03C9323E011962C931197B5
:101F200014961C92149785ED91E096968D939C9350
:101F3000979716961C921697E0E4F8E03083218379
:101F4000148286A397A31682E0E6F6E08081806182
:101F50008083E0E4F9E083E18183148282E0868378
:101F6000A6A3B7A310A611A681E0808308950F92BF
:101F70000FB60F921F9211242F933F938F939F932D
:101F8000CF93DF930F92CDB7DEB78FEF80934C09DD
:101F900080910A20873009F443C090912C028091EF
:101FA000BB21891B20916809309169098230ECF0CE
:101FB0002A3F3740D0F4209168093091690989306F
:101FC00064F581E090E0280F391F20937809309361
:101FD00079090F90DF91CF919F918F913F912F9130
:101FE0001F900F900FBE0F901895209168093091A7
:101FF00069098F3F74F72730310558F3209168093C
:1020000030916909883F94F081E090E0281B390BFA
:102010002093780930937909DCCF86E090E0D3CF24
:1020200080912C02898390912D02B9CF86E090E0B7
:10203000EDCFE0E7F0E083818F7E8383E0E4F6E09C
:1020400080818A6A80838FEF848388E5828BE0EACF
:10205000F8E080E3838384EC858387E086831782BE
:1020600088E184830895E0E7F0E08381877F8383BC
:10207000E0ECF8E0118288E58093550680E68083E5
:102080000895000018958F93EF93FF93E0EAF8E02E
:1020900080818083FF91EF918F9118956BE186305D
:1020A00009F063E08091510081FF0CC084E490E06E
:1020B0007DD69FB7F894809170008F7B80937000DD
:1020C0009FBF08959FB7F8948091500082608093DD
:1020D00050009FBF8091510081FFFCCF9FB7F894C3
:1020E00080915600897F8093560080E88093650038
:1020F0008BEB80936600809156008460809356003D
:10210000809160008160809360009FBFCFCF8091FD
:10211000A32B08958091A42B08958091A52B089559
:1021200035D1FC0183818093A52B813011F081E0B2
:10213000089582E00C947F078091A32B813009F0F1
:10214000089580E00C949B078091A42B813009F0C6
:1021500008950C949B078091A52B813009F0089578
:1021600082E00C949B078091AD2C982F907687FD90
:1021700004C0903451F080E008959034E1F78091EC
:10218000AE2C8111F8CF0C94B8078091AE2C811140
:10219000F2CF8091B32C9091B42C892B61F30C94E5
:1021A000B607F4D0FC0183818093A32B813011F01A
:1021B00081E0089580E00C947F07E8D0FC018381E2
:1021C0008093A42B813011F081E008950C947F0757
:1021D0009091AC2B911579F1E091AA2BF091AB2B5A
:1021E0000190F081E02D9481891728F5E093A82BC8
:1021F000F093A92B228133812E0F3F1FE217F307A3
:1022000038F019C09081E90FF11DE217F30778F457
:1022100091819430B9F792819813F4CF93819613FA
:10222000F1CFE093A82BF093A92B81E00895E093E0
:10223000A82BF093A92B80E008958091AF2C8F7785
:102240000C944F1AFF920F931F93CF93DF93C82FD5
:1022500060E0BEDF811509F441C0E091AA2BF09146
:10226000AB2B8C2F90E0880F991F0280F381E02D1B
:10227000E80FF91F00811181D8011696ED91FC91AC
:102280000995682F8C2FA4DFF82E811539F1C091A4
:10229000A82BD091A92BE091AA2BF091AB2B019008
:1022A000F081E02D228133812E0F3F1F05C09981DF
:1022B000943041F09530D1F09881C90FD11DC217EB
:1022C000D307A8F3D8011296ED91FC9109958F2DB3
:1022D000DF91CF911F910F91FF900895F12C8F2DD9
:1022E000DF91CF911F910F91FF900895209751F3A7
:1022F0008A810E94DC1BCFCF1F93CF93DF93182FCF
:1023000067DF8115F1F1C091A82BD091A92BA09185
:10231000AA2BB091AB2BED91FC91119722813381C7
:102320002E0F3F1F8881C80FD11DC217D30748F059
:102330000BC09530E1F09881C90FD11DC217D307AA
:1023400018F499819430A9F7812F90E0880F991F94
:102350001296ED91FC91E80FF91F0190F081E02DAC
:102360000190F081E02DDF91CF911F91099420978A
:1023700059F34C815D816B818A810E945C1A8111C5
:10238000C6CF80E0DF91CF911F9108958091A82B57
:102390009091A92B08950C94D419CF938091AC2BD4
:1023A0008115C1F0E091AA2BF091AB2B0190F08147
:1023B000E02D8481811571F0C0E08C2F43DFCF5F69
:1023C000E091AA2BF091AB2B0190F081E02D84815C
:1023D000C81798F31092AC2B1092B02B1092B12B1F
:1023E000CF910895CF938091AC2B811549F1A091A5
:1023F000AA2BB091AB2BED91FC91119784818115A3
:10240000F9F0C0E08C2F90E0880F991F1296ED91A3
:10241000FC911397E80FF91F0190F081E02D0084E3
:10242000F185E02D309729F00995A091AA2BB09164
:10243000AB2BCF5FED91FC9111978481C81710F3FE
:10244000CF9108950F931F93CF93DF931092B72CE2
:102450001092B82C1092B92C1092BA2C1092BB2C5E
:102460001092BC2C8091AD2C87FD3AC0982F9076AD
:10247000903409F440C0C82FCF71911561F0C1307C
:1024800009F499C0C23009F4C9C080E0DF91CF914E
:102490001F910F91089587FD6FC0C1117BC180917D
:1024A000AE2C853009F448C2893009F4B8C18130B6
:1024B00061F78091B32C9091B42C892B31F78091E6
:1024C000AF2C9091B02C019701F78091B02B909197
:1024D000B12B8D7F8093B02B9093B12B81E0D6CF21
:1024E0002091B32C3091B42C232B79F2982F907635
:1024F000903409F0C0CF9091AE2C963A09F4ACC25A
:1025000008F0C6C0933A09F49DC208F014C1913A8C
:1025100009F4B1C2923A09F0E3C081E08093092046
:10252000109240088091AF2C9091B02C8093760847
:10253000909377088091B12C8F70809340086091C0
:10254000B32C7091B42C8FEB91E2AFD78091B32C68
:102550009091B42C20910C2030910D20821793077C
:1025600009F4BCCF80930C2090930D2080910A2019
:102570000E948C0881E08ACF2091B32C3091B42C3A
:102580002115310509F47BCFC1112CC18091AE2CEE
:10259000863009F4C9C2883009F4BBC2811175CFF5
:1025A0002230310509F071CF62E070E080EB9BE2F0
:1025B0007CD781E06BCF8091AC2B811509F465CF7E
:1025C0000091B12C1091B22CC091AA2BD091AB2BC1
:1025D000E881F9818481081708F057CF60E0802FE7
:1025E000F7DD8115B9F0C8019927880F991FEA8195
:1025F000FB81E80FF91FC081D181EE81FF81099530
:10260000682F802FE5DD811529F0EC81FD8109958A
:10261000811164CFC091AD2CCF7134CF8091AC2BA0
:10262000811509F432CFE091AA2BF091AB2BA08158
:10263000B18114968C91C0E0811114C026CFD801CD
:102640001496ED91FC910995811120CFCF5FE09117
:10265000AA2BF091AB2BA081B18114968C91C81755
:1026600008F013CF8C2F90E0880F991F0280F38120
:10267000E02DE80FF91F00811181D8011696ED9128
:10268000FC910995682F8C2FA3DD8111D8CFFDCE49
:102690009A3A09F4CEC108F468C09B3A09F49EC185
:1026A000923B09F071C0109209201092400880916D
:1026B000AF2C9091B02C80937608909377088091FE
:1026C000B12C8F70809340086091B32C7091B42C22
:1026D0008FEB91E2EAD68091B32C9091B42C42CF4B
:1026E000903A09F051C081E08093B6218091072093
:1026F000909108208093A22180910720909108203A
:102700009093A321809129218093A42180912A2153
:102710008093A52180916A008093A62180916B000F
:102720008093A7216091B32C7091B42C85E991E23C
:10273000BCD681E0ABCE943A09F44AC12091AF2CCB
:102740003091B02C2430310509F4D3C008F05BC1BE
:102750002230310509F480C22330310509F038C236
:1027600083E00E948C0881E091CE983A09F47AC106
:10277000993A09F09EC26091B32C7091B42C8DE00F
:1027800091E293D681E082CEC82FCF71C13009F09B
:1027900079CE11CFC13009F4B1C0C23009F075CE85
:1027A0008091AE2C813009F4A3C1833009F036CF7B
:1027B0008091B32C9091B42C2091AF2C3091B02CFF
:1027C000822B932B892B09F029CF8091B12CB4D780
:1027D0008091B12C0E94F21B811180CEC091AD2C52
:1027E000CF714DCEC13009F4B6C0C23009F04DCE24
:1027F0008091AE2C811112CF2230310509F00ECF1D
:102800008091B12CABD690E08093A62B9093A72B10
:1028100062E070E086EA9BE248D681E037CE8091A4
:10282000B32C9091B42C892B09F02FCE3BD6811577
:10283000A9F28091AF2C9091B02CE0912E20F091D4
:102840002F20218930E02817310540F22091AC2B50
:102850002115E1F0E091AA2BF091AB2B0190F081D2
:10286000E02D2481211591F0D0E08D2FEBDCDF5F8E
:10287000E091AA2BF091AB2B0190F081E02D8481A7
:10288000D81798F38091AF2C9091B02C1092B02B68
:102890001092B12B8093AC2B811509F41FCE992790
:1028A0008150904C880F991F880F991FE09130201C
:1028B000F0913120E80FF91FE093AA2BF093AB2B96
:1028C0000190F081E02D848181110DC007CECF5F92
:1028D000E091AA2BF091AB2B0190F081E02D848147
:1028E000C81708F0FBCD60E08C2F06DD8111EFCF1B
:1028F00075CF84E00E948C0881E0C8CD8091AC2B1C
:102900009091AE2C9B3009F058CE2091B32C309191
:10291000B42C232B09F051CE811509F4B6CDC0910A
:10292000B12CD091AF2C8C2F8DDC811509F456CFB2
:102930006D2F8C2FE1DC50CF8091B32C9091B42C73
:10294000892B09F0A2CD8DE191E18093B92C909370
:10295000BA2C81E09BCD8091AC2B9091AE2C9A301B
:1029600009F02BCE2130310509F027CE811509F46D
:102970008CCDC091B12CD091B22C0091AA2B10918A
:10298000AB2BD801ED91FC918481C81708F07DCD67
:1029900060E08C2F1DDC811509F420CFCE01992732
:1029A000880F991FD8011296ED91FC91E80FF91F3D
:1029B0000190F081E02D86819781FC01099580933B
:1029C000AE2B61E070E08EEA9BE26FD581E05ECDD8
:1029D0008091AF2C8093240681E058CD8091942182
:1029E00080936B218091BC218093712180910A207A
:1029F000809372216091B32C7091B42C8BE691E29C
:102A000054D581E043CD2630310509F40BC1273080
:102A1000310509F05CC062E080E00E94BA07809155
:102A2000B12C80680E94130887E00E948C0881E026
:102A30002DCD0E947307811151CD8091AD2C982F1F
:102A4000907619CD10926809109269098091AF2C87
:102A50008093BB2181E01ACD8091AF2C80938406B6
:102A600081E014CD6091B32C7091B42C8EE091E292
:102A70001CD581E00BCD109200088091AF2C909175
:102A8000B02C80933608909337088091B12C8F70CA
:102A9000809300086091B32C7091B42C80EC93E289
:102AA00004D58091B32C9091B42C20910E203091BC
:102AB0000F208217930709F411CD80930E20909375
:102AC0000F2080910A200E948C0881E0DFCC253005
:102AD000310509F059CE60E080E00E94BA0780918C
:102AE000B12C0E94130885E00E948C0881E0CECCB6
:102AF0008091B32C9091B42C2091AF2C3091B02CBC
:102B0000822B932B892B09F089CD8091B12C3BD559
:102B100063CE2130310509F0B8CC61E070E08CEA79
:102B20009BE2C3D481E0B2CC2091AF2C3091B02C89
:102B3000832F99278330910509F459C0C8F5813056
:102B4000910509F466C0029709F09FCCE0912E2010
:102B5000F0912F208189281708F097CCC901992777
:102B6000880F991F880F991FE0913020F091312034
:102B7000E80FF91F80819181FC016281738195D4F6
:102B8000E091B52CF091B62C82E081838091B32C3A
:102B90009091B42C2091B72C3091B82C82179307C8
:102BA00008F09CCC8093B72C9093B82C81E06ECC2D
:102BB0000F9709F06ACC80913220909133200097D2
:102BC00009F463CCDC0112966D917C916ED4DECF5A
:102BD000232BA9F160E080E00E94BA078091B12C1C
:102BE0000E94130881E00E948C0881E04FCCC9014B
:102BF0009927213009F459C08230910509F43DC06C
:102C0000892B09F042CC64E070E080E091E24DD481
:102C1000BDCF80912E2090912F20DC016C9170E02F
:102C200044D4B4CF61E080E00E94BA078091B12C17
:102C30000E94130886E00E948C0881E027CC60E0A7
:102C400080E00E94BA078091B12C0E94130880E0B6
:102C50000E948C0881E01ACC61E081E00E94BA07F2
:102C60008091B12C0E9413088091B22C0E942908F7
:102C700082E00E948C0881E009CC68E0EEEEF0E290
:102C8000AEEDB0E2AF01460F511D819190E08D9302
:102C90009D934E175F07C9F76F5F660F6093DC2047
:102CA00070E08CED90E201D471CF67E0E7EFF0E2E5
:102CB000E7CF8091AF2C9091B02C892B39F488ED1F
:102CC00091E0E9E7F0E0F89484BF90830E947503F7
:102CD00080E2EBE2F1E2ABE4B1E201900D928A9581
:102CE000E1F781E080934B210E948A030E947503E3
:102CF000E6CFFC01CB012091CF0127FDFCCF209135
:102D0000CC0128602093CC01BF01705FA0D78091D7
:102D1000CC01877F8093CC010895FC018091CF0185
:102D200087FDFCCFAF01405E5F4F2FEF3FE02E1BD2
:102D30003F0B91918091CF0187FDFCCF8091CC0119
:102D400088608093CC01D901AE0FBF1F9C93809106
:102D5000CC01877F8093CC01E417F50751F70895E4
:102D6000CF939091CF0197FDFCCF20E2829FC001CD
:102D700011241092C2019093C1018093C001C091AF
:102D8000CA0185E38093CA0161E08BEC91E00ED02B
:102D9000C093CA01CF9108954091CA01E62FF72F41
:102DA0008093CA0184914093CA0108951BBEFC011F
:102DB00028ED24BF608308950F93E8ECF4E0808150
:102DC0008F7D808380818F7D8083E4EFFCE202E051
:102DD00005931092F62C1092F72C00E2069300E473
:102DE0000693ECEEFCE200E2069300E40693EDEAC3
:102DF000FCE21486158616861786128613861092B4
:102E0000AC2C0F9108950F93CF93DF938091AC2C4E
:102E1000833009F45CC02091A82C3091A92C8091BA
:102E2000B72C9091B82CEC01C21BD30B82179307DF
:102E300049F1AE01420F531FC034D10508F445C01B
:102E4000A901405C5F4F80E0C0E4D0E08093B22BEA
:102E5000C093F62CD093F72C8091B52C9091B62C82
:102E6000820F931F8093F82C9093F92C4093A82CF9
:102E70005093A92CE4EFFCE202E00693DF91CF919E
:102E80000F9108958091AA2C9091AB2C820F931FE3
:102E90008093AA2C9093AB2C4091B32C5091B42CDE
:102EA0008417950711F18091B22B81111EC0E0911A
:102EB000BB2CF091BC2C3097A9F00995811120C052
:102EC0002091A82C3091A92CA90181E0BFCFE091DD
:102ED000B92CF091BA2C309709F00995DF91CF9178
:102EE0000F916ACFA90181E0B1CF84E08093AC2C2F
:102EF000ECEEFCE202E00693DF91CF910F91089592
:102F000020E030E08091B72CC82F8091B82CD82FCA
:102F100090CF5F926F927F928F929F92AF92BF926B
:102F2000CF92DF92EF92FF920F931F93CF93DF9395
:102F3000582EC82FCF70D0E0CC0FDD1F87FD219613
:102F40006E0122E0C21AD1087E01EE0CFF1CEE0CCD
:102F5000FF1CEE0CFF1CF701E054F34DE5A5E770F4
:102F6000E150E73008F061C0F0E0EE0FFF1FE05FD6
:102F7000FE4D808091808601000F111F000F111FF0
:102F8000000F111FF801EC0DFD1DEC54F44DA58050
:102F9000B680D701A054B34D57FC67C09E966D9084
:102FA0007C90808182FDC0C0A60CB71CD801AC0DFE
:102FB000BD1DAC54B44D1596AD92BC9216971396A8
:102FC0008D919C9114978A159B0598F515968D9374
:102FD0009C931697F701E054F34D82A993A98C9125
:102FE00080FF33C00C0D1D1DD801AC54B44D8C9125
:102FF0008E7F8C931796ED91FC911897309729F15D
:1030000015966D917C91452D80E0DF91CF911F91B8
:103010000F91FF90EF90DF90CF90BF90AF909F9077
:103020008F907F906F905F900994E8E08E2E912CA6
:10303000A2CFF701E054F34D22A933A92615370595
:1030400009F48DC08C9180FDCDCFDF91CF911F9180
:103050000F91FF90EF90DF90CF90BF90AF909F9037
:103060008F907F906F905F900895D2962D913C91B4
:10307000D3972A0D3B1D258336838381948128179E
:10308000390709F43EC05C01A21AB30AA11444E056
:10309000B40640F0EFEFF3E0CF01B401B1D55F012A
:1030A000A81AB90AD801AC0DBD1DAC54B44D8C9111
:1030B00081FD4CC090E00C0D1D1DD801AC54B44DE9
:1030C0008C9190FB81F98C93C7018054934DFC0146
:1030D00012AA13AAA6A6B7A611968D919C91820F4B
:1030E000931FCC0FDD1FCC0FDD1FCC0FDD1FC05198
:1030F000D34D88839983F701E451F34D02E00693A1
:10310000A4CF808181FF6CCF8D7F8083D2961D926A
:103110001C92D3979E961D921C929F97F701E451A3
:10312000F34D02E0069391CF218132818381948116
:10313000B40166D5452D4150550BBA016D54744DFF
:10314000AC01C9018A0D9B1D82D52ECFC501B401EA
:1031500057D5AC0191E0452B09F4ADCFABCFA81604
:10316000B90609F46FCF9C012A193B09211554E0D7
:10317000350708F443C02FEF33E0C901B40140D54F
:10318000F901E81BF90BCF01F701E054F34D16A646
:1031900017A60C0D1D1DD801AC54B44D881599050A
:1031A000D8F48C9184608C93252D2150330BC90168
:1031B0008D54944DCC0FDD1FCC0FDD1FCC0FDD1FC8
:1031C000C051D34D8883998382AA93AAF701E45111
:1031D000F34D02E0069339CF11962D913C912A0DC3
:1031E0003B1DCC0FDD1FCC0FDD1FCC0FDD1FC051F1
:1031F000D34D2883398382AB93ABE8CFC901B401A7
:10320000FFD4A901481B590BCA01BECFEF92FF9210
:103210000F93CF93DF938091CC0480FD07C080E0B3
:10322000DF91CF910F91FF90EF90089581E080930F
:10323000CC04CCEEDCE2FE0100E8069394EFE92E2C
:103240009CE2F92EF70100E806938093CA04FE0180
:1032500000E106938091AC2C811529F083508230D7
:1032600008F43AC0A9DD8091EE2C9091EF2C0897DC
:1032700011F081E0D5CF88E0E8E6FCE2ADEABCE2FF
:1032800001900D928A95E1F78091C8048062809345
:10329000C8048091C80480628093C804D3D8811583
:1032A00021F18091AD2C87FD2DC08091B32C9091A0
:1032B000B42C892B09F434C01092AA2C1092AB2C98
:1032C0001092A82C1092A92C81E08093AC2CFE01C6
:1032D00002E0069381E0A4CFE091B92CF091BA2CE2
:1032E000309709F4BFCF0995BDCF85E08093AC2C12
:1032F000E5EFFCE204E00593EDEEFCE204E005936B
:1033000081E08ECF1092AA2C1092AB2C1092A82C98
:103310001092A92C82E08093AC2C75DD81E080CFE7
:1033200083E08093AC2C1092F62C1092F72CF701CE
:1033300002E0069381E074CF9FB7F8948091A02DAE
:10334000811521F181E08093A02D80E48093CA044F
:1033500080E28093CA048091C10481608093C1049B
:103360008091C90482608093C9048091C8048064FC
:103370008093C8048091C90481608093C9048091BE
:10338000C80480688093C8049FBF089580919E2BD5
:103390008F3F49F02FB7F89480919E2B8F5F8093D9
:1033A0009E2B2FBFCFCFFFCFCF931092600080E333
:1033B0000E944E108091C00480648093C00481E01C
:1033C00080936000CFB7F89480E090E0FC01EE0FAE
:1033D000FF1FEE0FFF1FEE0FFF1FE054F34D15A66A
:1033E00001968631910591F780E090E0FC01EE0FA7
:1033F000FF1FEE0FFF1FEE0FFF1FE80FF91FEC542A
:10340000F44D20812E7F208301968431910571F740
:103410006AE170E082E0C0DC8F3F09F48FE18093C5
:10342000FA046BE170E082E0B7DC8F3F09F48FE1D2
:103430008093FB048091C0048A608093C0048091D3
:10344000C00480688093C0048091C0048061809330
:10345000C0048CEE9CE28093C6049093C7048091D4
:10346000C00480628093C0048FEF8093C504809174
:10347000C80482608093C8041092A02D8091A22B72
:103480008F3F61F09FB7F8948091A22B8F5F80935C
:10349000A22B9FBF51DFCFBFCF910895FFCF809365
:1034A000C30408958091C3040895EDEAFCE2808787
:1034B00091876287738708959A01482F4F7050E073
:1034C000440F551FFA0187FD3196EE0FFF1FEE0FD7
:1034D000FF1FEE0FFF1FDF01A054B34D9D968C918F
:1034E000803410F080E00895637080EC613021F04A
:1034F000625080E8623050F52038310569F1B8F447
:103500002032310539F12034310561F48360E05413
:10351000F34D15A696E094A785A785A5806285A79B
:1035200081E008952031310591F78160F0CF2115B8
:1035300092E0390769F02F3F93E0390711F4876073
:10354000E6CF2115314019F78560E1CF80E4D4CF73
:103550008660DDCF8260DBCF8460D9CF282F2F70CB
:1035600030E0220F331FF90187FD3196EE0FFF1F68
:10357000EE0FFF1FEE0FFF1FE054F34D85A582FBFA
:10358000882780F90895282F2F7030E0220F331FED
:10359000F90187FD3196CF01EE0FFF1FEE0FFF1FE0
:1035A000EE0FFF1FE054F34D25A522FF18C025A5FF
:1035B0002B7F25A70297FC01EE0FFF1FEE0FFF1FC9
:1035C000EE0FFF1FE80FF91FEC54F44D808180FFD0
:1035D00006C08E7F80830780F085E02D099581E00D
:1035E0000895EF92FF920F931F93CF93DF93E82FED
:1035F000C9012E2F2F7030E0220F331F7E2F770F3F
:10360000211D311DE901CC0FDD1FCC0FDD1FCC0FBB
:10361000DD1FDE01A054B34D9D967C919D977034C3
:1036200008F460C09D967C919D97707C703C21F061
:103630009D967C9172FD56C022503109FFB7F894D7
:103640007901EE0CFF1CEE0CFF1CEE0CFF1CD701E9
:10365000A20FB31FAC54B44D7C9170FD42C0716099
:103660007C93FFBF11964C93119712965C9312971F
:1036700013968D939C93149715961D921C921697F2
:1036800017960C93179718961C93611104C061E06C
:10369000009709F060E0D701A20FB31FAC54B44DFE
:1036A0004C91497F660F6670462B4C93E7FD22C014
:1036B000DE01A054B34D9D964C919D97407C403CBB
:1036C000F1F0C054D34D1EA61FA61AAA1BAA8E2F16
:1036D00020DC81E0DF91CF911F910F91FF90EF905F
:1036E0000895FFBF80E0DF91CF911F910F91FF9070
:1036F000EF900895C054D34D1AAA1BAAE8CF9D9607
:10370000AC91A770A15068E070E0A73068F078D263
:10371000892BB9F2F701E20FF31FEC54F44D8081CD
:103720008E7F808380E0DFCFB0E0AA0FBB1FA05F59
:10373000BE4D6D917C91EBCF0F93482F282F2F70AA
:1037400030E0220F331F842F880F211D311DC90146
:103750000297220F331F220F331F220F331FF9014D
:10376000E451F34D02E00593FC01EE0FFF1FEE0F55
:10377000FF1FEE0FFF1FE80FF91FEC54F44D80817F
:1037800080FF12C08E7F80830780F085E02D309708
:1037900059F02054334DD90147FD08C09E966D91D4
:1037A0007C9181E00F9109940F910895D2966D91CB
:1037B0007C9181E00F910994CF93C82FBDDF8C2FAE
:1037C0008F7090E0880F991FFC01C7FD3196EE0FB6
:1037D000FF1FEE0FFF1FEE0FFF1FE054F34D15A666
:1037E000CF9108950F93E82FEF70F0E0EE0FFF1FD9
:1037F00087FD3196EE0FFF1FEE0FFF1FEE0FFF1F2D
:10380000DF01A054B34D9D969C919D9794609D9629
:103810009C93E451F34D01E006938EDF81E00F911C
:1038200008951F920F920FB60F9211240F932F93AA
:103830003F934F935F936F937F938F939F93AF9338
:10384000BF93CF93EF93FF938091CB0487FD45C047
:103850008091CB0482FD23C08091CB0481FD6BC09D
:103860008091CB0484FD41C08091CB0486FD7BC058
:103870008091CB0485FD83C0FF91EF91CF91BF91E3
:10388000AF919F918F917F916F915F914F913F91F8
:103890002F910F910F900FBE0F901F90189584E0FD
:1038A0008093CA048091F42C86FFE6CF8091CC04EB
:1038B00081FDE2CFABDC8115F9F68091AC2C813033
:1038C00009F486C08430C1F6E5EFFCE204E005931C
:1038D000EDEEFCE204E00593CFCF80E88093CA04CC
:1038E0000E94F2110E94F705C7CF80E18093CA04BD
:1038F000C1E08C2F21DF8C2F80681EDFCF5FCA30A4
:10390000C1F70E94CD111092C3041092ED2C96E0E5
:103910009093EC2C83E48093ED2C1092F52C9093F3
:10392000F42C8093F52C88E69CE28093F02C909305
:10393000F12C42DAA1CF82E08093CA048091EC2C72
:1039400086FF9ACF8091CC0481FD96CF5FDC8115F4
:1039500009F092CF8091AC2C823009F445C08330BD
:1039600009F08ACFB1CF80E48093CA048091A02D62
:10397000811112C01092A02D0E94F5057DCF80E22A
:103980008093CA048091A02D8115A1F081E08093DD
:10399000A02D0E94F60570CF80919E2B811549F0D5
:1039A0009FB7F89480919E2B815080939E2B9FBF50
:1039B000E1CFFFCF80919E2B8F3F49F09FB7F894C6
:1039C00080919E2B8F5F80939E2B9FBFDFCFFFCF79
:1039D00083E08093AC2C1092F62C1092F72CE4EF3D
:1039E000FCE202E0069348CF84E08093AC2CECEE3E
:1039F000FCE202E0069340CF1F920F920FB60F92A7
:103A00001124EF92FF920F931F932F933F934F93A5
:103A10005F936F937F938F939F93AF93BF93CF9356
:103A2000DF93EF93FF938091CC0481FF4FC082E03E
:103A30008093CC04E091C504CCEEDCE2E195EE0F7E
:103A4000CE018E1B9109FC01808191818C5E9C428C
:103A500096958795969587959695879580FB8795FA
:103A600087F9E82FEF70F0E0EE0FFF1F87FD31962A
:103A7000EE0FFF1FEE0FFF1FEE0FFF1FDF01A05421
:103A8000B34D9C969C9195FF0AC0E451F34D00E222
:103A90000693811501F1803809F45FC03ADAFF918D
:103AA000EF91DF91CF91BF91AF919F918F917F91D6
:103AB0006F915F914F913F912F911F910F91FF90C7
:103AC000EF900F900FBE0F901F9018959FDB811500
:103AD00009F4ADCFE4CF8091AC2C843009F469C0F7
:103AE000E090EE2CF090EF2C2091B72C3091B82C78
:103AF0008091A82C9091A92C8701080F191F2017DD
:103B0000310768F12091B52C3091B62CA70168E6F9
:103B10007CE2820F931F9BD00093A82C1093A92CBA
:103B200090E4E916F10461F10093B72C1093B82CDE
:103B3000E091BB2CF091BC2C3097B1F0099581112C
:103B400013C085E08093AC2CE5EFFCE204E0059324
:103B5000EDEEFCE204E00593A2CF55D9A0CF7901A8
:103B6000E81AF90A8901CECF83E08093AC2C109239
:103B7000F62C1092F72CE4EFFCE202E006938FCFD4
:103B80008091AA2C9091AB2C800F911F2091B32C87
:103B90003091B42C8217930708F0C6CF8091B72CD0
:103BA0009091B82C8017910769F0FE0102E006930E
:103BB00076CFE091B92CF091BA2C309709F00995A5
:103BC000FBD86DCFE091BB2CF091BC2C309709F461
:103BD000B8CF0995811509F4B4CF8091AA2C9091A2
:103BE000AB2C2091A82C3091A92C820F931F80938D
:103BF000AA2C9093AB2C1092A82C1092A92CD5CF64
:103C0000AA1BBB1B51E107C0AA1FBB1FA617B70702
:103C100010F0A61BB70B881F991F5A95A9F780951E
:103C20009095BC01CD01089597FB072E16F40094E2
:103C300006D077FD08D0E4DF07FC05D03EF4909570
:103C400081959F4F0895709561957F4F0895FB0171
:103C5000DC0102C001900D9241505040D8F7089508
:043C6000F894FFCF06
:103C640040000CE02E0AFFFFFF01FF55800080009A
:103C74009010AB10B3108D100000DD10A410B31021
:103C84008A100000D1109C10B31087100000C820C7
:103C9400342000004020382024201A201020000066
:103CA4000902850003010080FA0904000000FFFFF7
:103CB400FF000904000107FFFFFF000705810580DD
:103CC40000010705820580000107058305800001C6
:103CD40007058405800001070585058000010705A7
:103CE4008605800001070589050800010904010013
:103CF40000FFFFFF000904010102FFFFFF000705A9
:103D04008705FF030107058A05080001090402006D
:103D140000FFFFFF000904020101FFFFFF00070588
:103D24008802400000000000120100020000004070
:103D3400EB0394BA0002010200010000000300003A
:103D440000000000000000000000000000004C61C2
:103D5400627261646F72004573706F54656B00002A
:103D640004030904646562756731323300030A0091
:0E3D7400100020004000800000010002FF034C
:00000001FF
