:10000000FDC0000017C1000015C1000013C10000B1
:1000100011C100000FC100000C94510F0C94810F0E
:1000200009C1000007C1000005C1000003C10000B4
:1000300001C10000FFC00000FDC00000FBC00000C7
:10004000F9C00000F7C00000F5C00000F3C00000D8
:10005000F1C00000EFC00000EDC00000EBC00000E8
:100060000C947F100C948110E5C00000E3C00000E8
:10007000E1C00000DFC00000DDC00000DBC0000008
:10008000D9C00000D7C00000D5C00000D3C0000018
:10009000D1C00000CFC00000CDC00000CBC0000028
:1000A000C9C00000C7C00000C5C00000C3C0000038
:1000B000C1C00000BFC00000BDC00000BBC0000048
:1000C000B9C00000B7C00000B5C00000B3C0000058
:1000D000B1C00000AFC00000ADC00000ABC0000068
:1000E000A9C00000A7C00000A5C00000A3C0000078
:1000F000A1C000009FC000009DC000009BC0000088
:1001000099C0000097C0000095C0000093C0000097
:1001100091C000008FC000008DC00000ADC700007E
:1001200089C0000087C0000085C0000083C00000B7
:1001300081C000007FC000007DC000007BC00000C7
:1001400079C0000077C0000075C000000C94F50F66
:1001500071C000006FC000006DC000006BC00000E7
:1001600069C0000067C0000065C0000063C00000F7
:1001700061C000005FC000005DC000005BC0000007
:1001800059C0000057C0000055C0000053C0000017
:1001900051C000004FC000004DC000004BC0000027
:1001A00049C0000047C0000045C0000043C0000037
:1001B00041C000003FC000003DC000003BC0000047
:1001C00039C0000037C0000035C0000033C0000057
:1001D00031C000002FC000002DC000002BC0000067
:1001E00029C0000027C0000025C0000023C0000077
:1001F00021C000000C946D1C0C94581D11241FBECE
:10020000CFEFCDBFDFE2DEBF11E2A0E0B0E2ECE174
:10021000FDE302C005900D92AE31B107D9F72EE291
:10022000AEE1B1E201C01D92AD30B207E1F792D468
:100230000C948C1EE5CE9C0150E01816190624F093
:1002400031952195310951E080916B0090E08093C8
:10025000232190932421809123219091242196950C
:10026000982F882797958795809323219093242111
:1002700040916A008091232190912421840F911D47
:100280008093232190932421000080912321909139
:1002900024218217930720F180912321909124211A
:1002A000820F931F81159042A0F480912321909199
:1002B00024215115D1F0821B930B8093232190931D
:1002C000242180912321909124218F7780936A00AB
:1002D00008958FEF9FE18093232190932421089527
:1002E00010922321109224210895280F391F209362
:1002F00023213093242180912321909124218F77F1
:1003000080936A00089584E0809356008CE1ABD618
:10031000809363008BEB8093660080E88093650098
:1003200081E08093600088ED84BF1092410083E0FB
:1003300080935000809151008330E1F7809150000C
:1003400081608093500088E1809355008091510036
:1003500080FFFCCF8091500080618093500080919D
:10036000510084FFFCCF88ED84BF84E0809340007F
:100370000895E0E7F0E085818E7F8583E0E0FAE094
:100380008FEB9DE586A397A380EE9EE280A391A3C9
:1003900082E0808308958091200A9091210A813E15
:1003A0002EE2920708F45EC02091292120936A0072
:1003B00020910520211561F08091052081508093C6
:1003C000052080910720909108200196E1F1089581
:1003D000885F9A42813D9740A0F31092222180913C
:1003E000252190912621A0912721B09128210196C5
:1003F000A11DB11D8093252190932621A093272133
:10040000B09328218091252190912621A091272128
:10041000B0912821892F9A2FAB2FBB2780930122DF
:100420008091252190912621A0912721B09128210A
:100430008093002286E08093052080910720909190
:100440000820019621F680910A208F3F09F4BFCF42
:100450008091062081110FC08091062081508093E9
:1004600006200895803E2EE2920771F020912A2105
:1004700020936A009DCF8091140190911501809383
:10048000072090930820089580910520811509F494
:1004900098CF92CFCF93DF93C091200AD091210AB9
:1004A00080910320909104209E01281B390B2093FA
:1004B00020213093212180912221811118C0809127
:1004C0002021909121218E3C9F4FE4F480912021A6
:1004D000909121218B369F4FACF0809102208115A5
:1004E00009F46CC080910220815080930220809199
:1004F00022218130A1F1C0930320D0930420DF9109
:10050000CF9108958CE080930220809120219091DA
:1005100021218A369F4FD4F18FEF9FEF80931E21C8
:1005200090931F21809120219091212120911E21C3
:1005300030911F2160E370E00E94701E261B370B74
:1005400020931E2130931F2180911E2190911F2105
:10055000009769F270DE80912221813061F68091EE
:10056000202190912121C397A4F480912021909182
:10057000212187399105BCF08FEF9FEF5CDEC0939E
:100580000320D0930420DF91CF91089581E090E083
:10059000C5CF80910220811549F0809102208150C1
:1005A00080930220A8CF81E090E0E8CF80916A009C
:1005B00080932A2183E0809322219DCF80916A003D
:1005C0008093292181E0809322218CE08093022076
:1005D0008ECF8091002090910120892B09F057C087
:1005E00080E490E080930020909301208091072088
:1005F00090910820019609F449C0809114019091CE
:10060000150120910A206EEE72E0263010F467E7A3
:1006100071E00E945C1E209107203091082028176D
:100620003907B0F4209107203091082028173907A6
:1006300079F028173907A8F1281B390B213031052B
:1006400039F080EC9DE58093360A9093370A08953F
:10065000209107203091082082179307B8F4209149
:100660000720309108202817390781F0281739070B
:10067000E8F4AC01421B530B9A012130310531F0F3
:100680008FEB9DE58093360A9093370A0895809109
:1006900000209091012001978093002090930120E9
:1006A0000895AC01421B530B9A01C8CF281B390B8C
:1006B000E4CFAC019C01260F371F461B570B8091DE
:1006C000200A9091210A82179307C8F78091200A87
:1006D0009091210A4817590790F70895E0E8F6E04D
:1006E0008FE0808385E0848308951F93CF93DF9309
:1006F000C0E4D0E0198180E4898340E250E06CE4FA
:1007000071E280E290E00E94D5161983DF91CF91CB
:100710001F9108951F93CF93DF93C0E4D0E0198118
:1007200080E4898340E250E06CE271E280E490E092
:100730000E94D5161983DF91CF911F910895CF9311
:10074000C091410080E4809341008CE291E20E94DC
:10075000E91682E00E940C178091CF0187FDFCCF43
:10076000C0934100CF910895CF93C091410080E4A0
:10077000809341008CE691E20E94E91681E00E949C
:100780000C178091CF0187FDFCCFC0934100CF9122
:10079000089508950F931F939BEE9093A42198E5DD
:1007A0009093A52120919821309199212093A62101
:1007B00020919821309199213093A72190919721F0
:1007C0009093A821909196219093A9219091142221
:1007D0009093AA21909195219093AB2191E09093D1
:1007E0009A2102E415E028E030E044EA51E260E0BA
:1007F0000E944D1B811107C010929A2180918D217A
:10080000806880938D211F910F910895CF92DF9280
:10081000EF92FF920F931F93CF93DF9300D00F922D
:10082000CDB7DEB710929C2110929D211092942199
:1008300010929A2110928D2110928E2110928F2168
:1008400010929021109291218091EC21823089F0B8
:10085000833009F45FC0813051F10F900F900F90F9
:10086000DF91CF911F910F91FF90EF90DF90CF908C
:10087000089587E80E94F81B02E515E02EEE32E0AD
:1008800048E156E260E087E80E944D1B811509F4BB
:1008900047C08AE80F900F900F90DF91CF911F9182
:1008A0000F91FF90EF90DF90CF900C94F81B88E1B0
:1008B000E82E86E2F82E1A821B82CC24C394D12C17
:1008C0008A818F5789830E94F81B02E515E02DE786
:1008D00030E0A70160E089810E944D1B81110CC0AE
:1008E00080918D2196010A8002C0220F331F0A9445
:1008F000E2F7822B80938D218A819B8101968A83E6
:100900009B839DE7E90EF11C8A819B810697C1F6C6
:1009100089E8C0CF88E80E94F81B10929B219DCFE8
:1009200080918D21816080938D21B3CF2091EC2126
:1009300090E02130A9F04EEE52E0849F9001859F17
:10094000300D949F300D1124F901E85EF94D2A5FB6
:10095000364D80E091918927E217F307D9F7089582
:1009600020910A20253038F727E731E0829FA00147
:10097000839F500D929F500D1124FA01E85EF94DAE
:10098000DA01AA5FB64D4157584D80E091912D9103
:1009900092278927E417F507C9F70895CF93C82F41
:1009A00020919C2130919D212F5F3F4F20939C21CE
:1009B00030939D2180919C2190919D21809398213D
:1009C0009093992180E0B2DF8093972181E0AEDFA0
:1009D0008093962180910A208093952181E08093D5
:1009E000942180919A21811511F0CF9108958C2F37
:1009F000CF91D0CE0F931F93909190219F5F9093B2
:100A00009021811529F010929B211F910F9108953B
:100A10002091A0213091A1214091A2215091A321A8
:100A20000BE115E060E088E80E944D1B811559F349
:100A30001F910F9108950F931F93909191219F5FA4
:100A400090939121811106C080919E2190919F21C8
:100A5000892B29F410929B211F910F9108952091C9
:100A60009E2130919F2110929E2110929F210BE197
:100A700015E048E156E260E088E80E944D1B8111D4
:100A8000EBCFE8CF90918F219F5F90938F211092B1
:100A90009A21811104C080919421811101C008958F
:100AA000842F78CE0F931F93742F90918E219F5F88
:100AB00090938E21811108C08091EC21813039F012
:100AC0008091EC21823069F11F910F910895842F5C
:100AD0008158990B9C014DE7429FC001439F900DA7
:100AE000112420910A20253080F5743810F089589F
:100AF0009E4F6091142227E731E0629FA001639F1F
:100B0000500D1124480F591F485E594D02E515E05C
:100B10002DE730E060E0872F0E944D1B1F910F9161
:100B20000895209114228EEE92E0289FA001299F23
:100B3000500D1124485E594D02E515E02EEE32E0CD
:100B400060E087E80E944D1BBFCF609114222EEE1B
:100B500032E0D3CFCADD80914C21813009F456C0F8
:100B600087E08093A2007894CEDB13DE0E94091206
:100B70008DD2B0D260E080E0F3D16BD28CE05FD256
:100B80000E94B30F0E9457100E947110A7DD89E0E8
:100B9000E4E0F1E2ADEEB1E201900D928A95E1F769
:100BA0000000000000000000000000000000000045
:100BB00000000000000000000000000080910822FA
:100BC000811571F310920822809109228430E1F09E
:100BD00030F4823099F0833069F4BDD5E1CF8630AE
:100BE00089F0873019F40E94980EDACF8530C1F66B
:100BF000E6D7D6CF811521F06DD3D2CF8BD4D0CF0D
:100C000087D2CECFDDD7CCCFB6D6CACF80E2ECE448
:100C1000F1E2ACE6B1E201900D928A95E1F7109213
:100C20006C21C3E0A1DD61DD80914C21811511F0C3
:100C3000CA95C1F71CBEEEEFF0E4099591CF089577
:100C400008950F931F93809114018093F621809152
:100C500015018093F721809124018093F8218091E0
:100C600025018093F9218091200A809302228091AE
:100C7000210A8093032280911401909115018634FA
:100C8000914040F08091140190911501893A914072
:100C900008F451C08091122281115BC08091112211
:100CA000811531F080912221833009F465C0F2DB97
:100CB00080910E2281111DC08091EC21813039F18B
:100CC0009091142281E091112EC080931422809182
:100CD000082C811559F08091EC21823009F4E2C092
:100CE000833009F451C0813009F442C01F910F9143
:100CF0000895809114019091150180930F22909393
:100D0000102210920E228091EC218130C9F6809140
:100D10000A202091140130911501853018F581E0E9
:100D20002737314090F280E0809314228091082C84
:100D30008115E1F2D0CF809114019091150180933B
:100D40000F2290931022000080911222811509F445
:100D5000A5CF0FDB1092122281E0809311221F9108
:100D60000F91089581E02E3E324008F4AECFDBCFE4
:100D700089E81F910F9112CE0EDB2BDC80910E22A1
:100D8000811509F499CFB5CF80919C2190919D2137
:100D9000019680939C2190939D2180919B218111AC
:100DA000A5CF80910A20853008F480C0809114017D
:100DB000909115012CED35E0281B390B2D3D85E078
:100DC000380708F07FC081E02E3E324008F47EC034
:100DD00080E040E090E0242F392F285E394D2093A9
:100DE000A2213093A32120E033E02093A02130936F
:100DF000A12110929E2110929F2198DD9BEE90934D
:100E0000AC2197E59093AD2120919C2130919D21BB
:100E10002093AE2120919C2130919D213093AF21D0
:100E20009EEE9093B02192E09093B1218093B221F5
:100E300080910A208093B321809114228093B42161
:100E400080911C018093B52180911D018093B62172
:100E5000809114018093B721809115018093B8216E
:100E600080912C018093B92180912D018093BA212A
:100E7000809124018093BB21809125018093BC2126
:100E800081E080939B210AEF14E020E430E04CEAFB
:100E900051E260E088E80E944D1B811127CF10923B
:100EA0009B2124CF8AE81F910F9178CD8091142245
:100EB00091E089274EEE52E0849F9001859F300D8E
:100EC00011248BCF2EEE32E081E087CF4EEE92E000
:100ED00082CF8091EC21811102C080E0089581E0F1
:100EE0008093122293DC81E00895813031F08230CA
:100EF000A1F0811571F080E0089582E08093EC21EB
:100F0000F2D081E08093082C809312227FDC81E074
:100F1000089581E08093EC21F3CF83E08093EC216E
:100F2000EFCF8130A1F0823069F081110895809176
:100F3000EC218130D9F71092EC211092082C1092FC
:100F40009B2108958091EC218330A9F3089580912D
:100F5000EC21823081F3089581E0089581E00895C5
:100F6000909171009D7F9093710010920002623009
:100F700009F43EC09CE19093010290E49093020238
:100F800081112FC080E480930302613079F583E002
:100F90008093040282E08093CA01E0E2F0E0E491F1
:100FA0001092CA01E0930C028093CA01E1E2F0E0E2
:100FB000E4911092CA01E0930D021092180210926F
:100FC000190281E0809300021092280283E8809346
:100FD00028028FE28093290210922A0210922E0298
:100FE000089580EC80930302613089F284E0D0CFD1
:100FF0009EE19093010290E490930202811529F002
:1010000080EC8093030284E0C3CF9093030284E0DA
:10101000BFCFE0E0F2E010A2982F9C71936890A3FC
:10102000982F959595959595907186FB880F880BCF
:1010300080F98270892B81A312A216A20895E0E0A4
:10104000F2E010AA836880AB80E181AB12AA16AAF5
:101050000895E0E0F2E010A683E880A78FE281A780
:1010600012A616A60895AAECB1E092E09C93E82F90
:10107000F0E084911C9208958F930000000000001E
:10108000000081E0809323028F911895CF93DF9326
:10109000E0E7F0E082818B7F8283C0E2D3E08DE0E5
:1010A000888380E4898389E08A8383E3DCDF88871F
:1010B00082E3D9DF898787E3D6DF8A8786E3D3DFB8
:1010C0008B87E0E2F6E08081836080831482DF9189
:1010D000CF910895E0E7F0E080818E7F808383E800
:1010E00080930001089583E88093000180910A2095
:1010F000883038F480910A208093092281E080931F
:10110000082208958093092281E08093082208959F
:1011100010920A201092100180E480931001109226
:1011200020018093200110923001809330011092B1
:1011300040018093400110921622109215221092C5
:10114000142210920C2210920D2210920A22109258
:101150000B22809109208111A4C081E08093360187
:1011600084E0809330011092310129E5209332010F
:1011700082E08093330180910C2090910D20809328
:1011800034019093350187E192E280933801909386
:10119000390110923A018BE380933C0183E0809304
:1011A0003D0110923E019091300190689093300182
:1011B0001092460194E290934001109241012093D5
:1011C00042018093430120910E2030910F20209303
:1011D00044013093450128E134E2209348013093E3
:1011E000490110924A0199E390934C0180934D017B
:1011F00010924E01809140018068809340011092CE
:10120000100180E4809310018091EC21813009F479
:101210004EC084E0809310018091EC21813009F46C
:101220004EC083E08093110185E98093120180E133
:10123000809313018091EC21813009F448C087E745
:1012400091E0809314019093150184E2809318013A
:1012500082E08093190110921A0188E196E280934E
:101260001C0190931D0110921E018091EC2183308E
:1012700059F184EF91E068EC70E01BDA8091EC2189
:101280008330F9F088EC90E0809307209093082059
:1012900081E0809306208091100180688093100186
:1012A00008951092360184E2809330015CCF84E28D
:1012B000809310018091EC21813009F0B2CF80E061
:1012C000B1CF8CE291E0E0CF80E29CE1D4CF8EEE12
:1012D00092E0B7CF31E030930A201092100180E401
:1012E0008093100110922001809320011092300110
:1012F0008093300110924001809340011092162299
:10130000109215221092142210920C2210920D228B
:1013100010920A2210920B22109230018093300119
:1013200024E02093300110923101109232018BE4BD
:1013300080933301109234011092350110923601DE
:101340008BE090E2809338019093390110923A013A
:1013500080EA80933C0188E080933D0110923E0139
:1013600080913001806A8093300185E58093A008E8
:101370008093A008809109208111ACC03093460170
:10138000209340011092410189E58093420182E05F
:101390008093430180910C2090910D208093440113
:1013A0009093450187E192E280934801909349012F
:1013B00010924A018BE380934C0183E080934D01AE
:1013C00010924E018091400180688093400180918D
:1013D000EC21813009F484C084E080932001809165
:1013E000EC21813009F484C083E08093210185E9F8
:1013F000809322018BE4809323018091EC21813042
:1014000009F485C087E791E080932401909325013A
:1014100080EA8093280188E08093290110922A01B4
:1014200086E099E280932C0190932D0110922E0179
:101430008091EC21813009F468C084E08093100130
:101440008091EC21813009F45EC083E0809311012A
:1014500085E98093120180E1809313018091EC2152
:10146000813009F44DC087E791E080931401909397
:10147000150184E28093180182E080931901109293
:101480001A0188E196E280931C0190931D0110924D
:101490001E018091EC21833081F184EF91E068ECB2
:1014A00070E007D98091EC21833021F188EC90E045
:1014B000809307209093082081E0809306208091FC
:1014C00020018068809320018091100180688093C2
:1014D000100108951092460184E28093400152CF9A
:1014E00084E2809320018091EC21813009F07CCF4F
:1014F00080E07BCF8CE291E0DBCF80E29CE1CFCF3C
:101500008EEE92E0B2CF80E0A1CF84E297CF8EEE54
:1015100092E07ACF82E080930A201092100180E45A
:1015200080931001109220018093200110923001CD
:101530008093300110924001809340011092162256
:10154000109215221092142210920C2210920D2249
:1015500010920A2210920B22809109208111DBC087
:1015600081E08093360184E0809330011092310154
:1015700029E52093320182E08093330180910C2091
:1015800090910D20809334019093350187E192E290
:10159000809338019093390110923A018BE3809344
:1015A0003C0183E080933D0110923E019091300117
:1015B0009068909330011092460194E2909340011C
:1015C00010924101209342018093430120910E200B
:1015D00030910F20209344013093450128E134E2FB
:1015E000209348013093490110924A0199E3909366
:1015F0004C0180934D0110924E0180914001806812
:10160000809340011092100180E48093100180913A
:10161000EC21813009F485C084E080931001809131
:10162000EC21813009F485C083E08093110185E9C4
:101630008093120180E1809313018091EC2181302D
:1016400009F486C087E791E0809314019093150117
:1016500084E28093180182E08093190110921A01AC
:1016600088E196E280931C0190931D0110921E0167
:101670008091EC21813009F469C084E080932001DD
:101680008091EC21813009F45FC083E080932101D7
:1016900085E98093220180E1809323018091EC21F0
:1016A000813009F44EC087E791E080932401909344
:1016B000250184E38093280182E080932901109220
:1016C0002A0186E099E280932C0190932D011092DB
:1016D0002E018091EC21833089F184EF91E068EC58
:1016E00070E00E9459038091EC21833021F188EC55
:1016F00090E0809307209093082081E0809306205B
:101700008091100180688093100180912001806891
:101710008093200108951092360184E28093300175
:1017200025CF84E2809310018091EC21813009F073
:101730007BCF80E07ACF8CE291E0DBCF80E29CE14E
:10174000CECF8EEE92E0B1CF80E0A0CF84E296CFF4
:101750008EEE92E079CF83E080930A201092100100
:1017600080E4809310011092200180932001109258
:10177000300180933001109240018093400110921B
:101780001622109215221092142210920C221092FE
:101790000D2210920A2210920B22809109208111B1
:1017A000D1C081E08093460184E080934001109293
:1017B000410129E52093420182E080934301809119
:1017C0000C2090910D20809344019093450187E176
:1017D00092E2809348019093490110924A018BE371
:1017E00080934C0183E080934D0110924E019091C3
:1017F00040019068909340011092360194E29093DA
:1018000030011092310120933201809333012091F5
:101810000E2030910F20209334013093350128E1C0
:1018200034E2209338013093390110923A0199E360
:1018300090933C0180933D0110923E0180913001D4
:101840008068809330011092200190E490932001F1
:1018500084E08093200110922101109222018BE4F8
:1018600080932301109224011092250110922601E9
:101870002BE030E2209328013093290110922A01B5
:1018800080EA80932C0188E080932D0110922E0134
:1018900080912001806A8093200185E58093A008D3
:1018A00010921001909310018091EC21813009F485
:1018B0004FC084E0809310018091EC21813009F4C5
:1018C0004FC083E08093110185E9809312018BE47E
:1018D000809313018091EC21813009F449C087E79E
:1018E00091E0809314019093150180EA8093180190
:1018F00088E08093190110921A0188E196E28093A2
:101900001C0190931D0110921E018091EC218330E7
:1019100061F184EF91E068EC70E00E9459038091DE
:10192000EC218330F9F088EC90E0809307209093CD
:10193000082081E0809306208091100180688093C8
:10194000100108951092460184E2809340012FCF48
:1019500084E2809310018091EC21813009F0B1CFB5
:1019600080E0B0CF8CE291E0E0CF80E29CE1D3CF89
:101970008EEE92E0B6CF94E090930A201092100180
:1019800080E4809310011092200180932001109236
:1019900030018093300110924001809340011092F9
:1019A0001622109215221092142210920C221092DC
:1019B0000D2210920A2210920B2210923001809375
:1019C00030019093300110923101109232018BE47A
:1019D0008093330110923401109235011092360138
:1019E0002BE030E2209338013093390110923A0114
:1019F00080EA80933C0188E080933D0110923E0193
:101A000080913001806A8093300185E58093A00841
:101A1000809109208111B3C081E0809346019093A9
:101A200040011092410189E58093420182E0809358
:101A3000430180910C2090910D208093440190935C
:101A4000450187E192E28093480190934901109209
:101A50004A018BE380934C0183E080934D01109207
:101A60004E01809140018068809340018091EC217B
:101A7000813009F48AC084E0809310018091EC21C8
:101A8000813009F48AC083E08093110185E9809355
:101A900012018BE4809313018091EC21813009F4D1
:101AA0008BC087E791E0809314019093150180EA41
:101AB0008093180188E08093190110921A0188E13F
:101AC00096E280931C0190931D0110921E0180915B
:101AD000EC21813009F46EC084E080932001809174
:101AE000EC21813009F464C083E08093210185E911
:101AF000809322018AE4809323018091EC2181303C
:101B000009F453C087E791E0809324019093250165
:101B100083EC8093280188E08093290110922A01A8
:101B200086E099E280932C0190932D0110922E0172
:101B30008091EC218330B1F184EF91E068EC70E0AA
:101B40000E9459038091EC21833049F188EC90E0A8
:101B5000809307209093082081E080930620809155
:101B6000100180688093100180912001806880932B
:101B700020018091100180618093100108951092DE
:101B8000460184E2809340014CCF84E280931001AF
:101B90008091EC21813009F076CF80E075CF8CE226
:101BA00091E0D6CF80E29CE1C9CF8EEE92E0ACCF3F
:101BB00080E09BCF84E291CF8EEE92E074CFFFCF96
:101BC00086E080930A201092100180E48093100137
:101BD00010922001809320011092300180933001F7
:101BE000109240018093400110921622109215220B
:101BF0001092142210920C2210920D2210920A229E
:101C000010920B221092360194E2909330011092C0
:101C1000310189E58093320183E080933301209183
:101C20000E2030910F20209334013093350128E1AC
:101C300034E2209338013093390110923A0129E3BC
:101C400020933C0180933D0110923E018091300130
:101C500080688093300180910920811164C081E007
:101C60008093460184E0809340011092410189E510
:101C70008093420192E09093430120910C20309197
:101C80000D20209344013093450127E132E2209357
:101C900048013093490110924A018BE380934C0133
:101CA00083E080934D0110924E0180914001806845
:101CB000809340011092100180E48093100184E22F
:101CC000809310011092110125E92093120120E167
:101CD000209313012CED35E020931401309315016E
:101CE000809318019093190110921A0188E196E2ED
:101CF00080931C0190931D0110921E0168EC70E00E
:101D000084EF91E00E94590380E991E080930720DD
:101D10009093082081E080930620809110018068D4
:101D200080931001089510924601909340019DCF39
:101D300087E080930A201092100180E480931001C4
:101D40001092200180932001109230018093300185
:101D50001092400180934001109216221092152299
:101D60001092142210920C2210920D2210920A222C
:101D700010920B221092360194E29093300110924F
:101D8000310189E58093320183E080933301209112
:101D90000E2030910F20209334013093350128E13B
:101DA00034E2209338013093390110923A0129E34B
:101DB00020933C0180933D0110923E0180913001BF
:101DC00080688093300180910920811165C081E095
:101DD0008093460184E0809340011092410189E59F
:101DE0008093420192E09093430120910C20309126
:101DF0000D20209344013093450127E132E22093E6
:101E000048013093490110924A018BE380934C01C1
:101E100083E080934D0110924E01809140018068D3
:101E2000809340011092100180E48093100185E2BC
:101E3000809310011092110185E98093120180E1D5
:101E4000809313012CED35E020931401309315019C
:101E500084E2809318019093190110921A0188E18D
:101E600096E280931C0190931D0110921E0168EC74
:101E700070E084EF91E00E94590380E991E0809343
:101E800007209093082081E0809306208091100124
:101E9000806880931001089510924601909340014C
:101EA0009CCF1F921FB61F9211248F939F9381E0A6
:101EB000809303018091EC218130D1F010921001C8
:101EC00084E08093100187E791E080931401909360
:101ED000150180911422811111C086E099E280934E
:101EE0001C0190931D018091100180688093100166
:101EF0009F918F911F901FBE1F90189588E196E2C9
:101F0000EECF1F921FB61F9211248F939F9382E0F2
:101F1000809303018091EC218130E1F01092200147
:101F200084E08093200187E791E0809324019093DF
:101F3000250180911422811113C085E694E0885E0A
:101F4000994D80932C0190932D0180912001806800
:101F5000809320019F918F911F901FBE1F90189515
:101F600087E791E0ECCFE0E7F0E083818C7F83832B
:101F700084818C7F848380818D7F8083E0E8F1E0A1
:101F800080EC8283128688EC81831186A0E0B8E021
:101F900034E03C9323E011962C93119714961C92F5
:101FA000149785ED91E096968D939C93979716964E
:101FB0001C921697E0E4F8E030832183148286A314
:101FC00097A31682E0E6F6E0808180618083E0E4FA
:101FD000F9E083E18183148282E08683A6A3B7A31C
:101FE00010A611A681E0808308950F920FB60F927C
:101FF0001F9211242F933F938F939F93CF93DF933F
:102000000F92CDB7DEB78FEF80934C0980910A20F5
:10201000873009F443C090912C0280911322891BD0
:1020200020916809309169098230ECF02A3F3740ED
:10203000D0F42091680930916909893064F581E014
:1020400090E0280F391F20937809309379090F9079
:10205000DF91CF919F918F913F912F911F900F9082
:102060000FBE0F90189520916809309169098F3F34
:1020700074F72730310558F32091680930916909C8
:10208000883F94F081E090E0281B390B2093780979
:1020900030937909DCCF86E090E0D3CF80912C0299
:1020A000898390912D02B9CF86E090E0EDCFE0E7F3
:1020B000F0E083818F7E8383E0E4F6E080818A6AAA
:1020C00080838FEF848388E5828BE0EAF8E080E309
:1020D000838384EC858387E08683178288E1848309
:1020E0000895E0E7F0E08381877F8383E0ECF8E008
:1020F000118288E58093550680E68083089500006C
:1021000018958F93EF93FF93E0EAF8E08081808346
:10211000FF91EF918F9118956BE1863009F063E0A4
:102120008091510081FF0CC084E490E09BD69FB762
:10213000F894809170008F7B809370009FBF08950A
:102140009FB7F894809150008260809350009FBFA9
:102150008091510081FFFCCF9FB7F8948091560089
:10216000897F8093560080E8809365008BEB809395
:1021700066008091560084608093560080916000D4
:102180008160809360009FBFCFCF80910F2C089516
:102190008091102C08958091112C089535D1FC0167
:1021A00083818093112C813011F081E0089582E0C9
:1021B0000C94750780910F2C813009F0089580E010
:1021C0000C9491078091102C813009F008950C94A3
:1021D00091078091112C813009F0089582E00C94D0
:1021E00091078091192D982F907687FD04C0903427
:1021F00051F080E008959034E1F780911A2D81111B
:10220000F8CF0C94AE0780911A2D8111F2CF8091F6
:102210001F2D9091202D892B61F30C94AC07F4D0E5
:10222000FC01838180930F2C813011F081E00895AF
:1022300080E00C947507E8D0FC0183818093102C1A
:10224000813011F081E008950C9475079091182C5D
:10225000911579F1E091162CF091172C0190F081F5
:10226000E02D9481891728F5E093142CF093152C18
:10227000228133812E0F3F1FE217F30738F019C078
:102280009081E90FF11DE217F30778F49181943002
:10229000B9F792819813F4CF93819613F1CFE0931D
:1022A000142CF093152C81E00895E093142CF093F6
:1022B000152C80E0089580911B2D8F770C94AB1A1C
:1022C000FF920F931F93CF93DF93C82F60E0BEDF81
:1022D000811509F441C0E091162CF091172C8C2F38
:1022E00090E0880F991F0280F381E02DE80FF91F1D
:1022F00000811181D8011696ED91FC910995682F06
:102300008C2FA4DFF82E811539F1C091142CD091B7
:10231000152CE091162CF091172C0190F081E02DF6
:10232000228133812E0F3F1F05C09981943041F0E7
:102330009530D1F09881C90FD11DC217D307A8F3EA
:10234000D8011296ED91FC9109958F2DDF91CF91D7
:102350001F910F91FF900895F12C8F2DDF91CF9158
:102360001F910F91FF900895209751F38A810E9449
:10237000381CCFCF1F93CF93DF93182F67DF8115C2
:10238000F1F1C091142CD091152CA091162CB09184
:10239000172CED91FC911197228133812E0F3F1F55
:1023A0008881C80FD11DC217D30748F00BC09530E4
:1023B000E1F09881C90FD11DC217D30718F4998194
:1023C0009430A9F7812F90E0880F991F1296ED9114
:1023D000FC91E80FF91F0190F081E02D0190F08150
:1023E000E02DDF91CF911F910994209759F34C81F3
:1023F0005D816B818A810E94B81A8111C6CF80E00D
:10240000DF91CF911F9108958091142C9091152CFC
:1024100008950C94301ACF938091182C8115C1F037
:10242000E091162CF091172C0190F081E02D848121
:10243000811571F0C0E08C2F43DFCF5FE091162C47
:10244000F091172C0190F081E02D8481C81798F34A
:102450001092182C10921C2C10921D2CCF910895C4
:10246000CF938091182C811549F1A091162CB09131
:10247000172CED91FC91119784818115F9F0C0E042
:102480008C2F90E0880F991F1296ED91FC91139775
:10249000E80FF91F0190F081E02D0084F185E02D17
:1024A000309729F00995A091162CB091172CCF5F89
:1024B000ED91FC9111978481C81710F3CF91089585
:1024C0000F931F93CF93DF931092232D1092242DFF
:1024D0001092252D1092262D1092272D1092282D26
:1024E0008091192D87FD14C0982F90769034D1F0EB
:1024F000C82FCF71911571F1C13009F470C0C2308D
:1025000009F4A0C080E0DF91CF911F910F91089551
:1025100020911F2D3091202D232BA1F3982F907601
:10252000903431F790911A2D973A09F41EC408F0AF
:10253000C3C0933A09F412C308F4EFC0953A09F402
:10254000B9C2963A09F014C380911B2D809384067A
:1025500081E0D9CF87FD24C0C11151C180911A2DCE
:10256000853009F426C2893009F48EC1813051F6D4
:1025700080911F2D9091202D892B21F680911B2D6C
:1025800090911C2D019709F0BDCF80911C2C90914A
:102590001D2C8D7F80931C2C90931D2C81E0B3CF3C
:1025A00020911F2D3091202D2115310509F4A4CF44
:1025B000C1114DC180911A2D863009F40CC38830A9
:1025C00009F4FEC281119ECF2230310509F09ACF65
:1025D00062E070E08CE19CE2C4D781E094CF80910E
:1025E000182C811509F48ECF00911D2D10911E2DF0
:1025F000C091162CD091172CE881F981848108179D
:1026000008F080CF60E0802F21DE8115B9F0C8018D
:102610009927880F991FEA81FB81E80FF91FC08174
:10262000D181EE81FF810995682F802F0FDE811502
:1026300029F0EC81FD81099581118ACFC091192D76
:10264000CF715DCF8091182C811509F45BCFE0919B
:10265000162CF091172CA081B18114968C91C0E0BA
:10266000811114C04FCFD8011496ED91FC910995BA
:10267000811149CFCF5FE091162CF091172CA081EA
:10268000B18114968C91C81708F03CCF8C2F90E044
:10269000880F991F0280F381E02DE80FF91F008158
:1026A0001181D8011696ED91FC910995682F8C2F18
:1026B000CDDD8111D8CF26CF9B3A09F43AC208F478
:1026C00065C09D3A09F40CC2923B09F052C01092C9
:1026D00009201092400880911B2D90911C2D809311
:1026E00076089093770880911D2D8F708093400815
:1026F00060911F2D7091202D87E192E232D7809159
:102700001F2D9091202D80930C2090930D2080916F
:102710000A200E94820881E0F6CE913A09F49EC117
:10272000923A09F042C081E080930920109240085B
:1027300080911B2D90911C2D8093760890937708A3
:1027400080911D2D8F708093400860911F2D709196
:10275000202D87E192E205D780911F2D9091202DA9
:1027600020910C2030910D208217930761F681E0B3
:10277000CACE9C3A41F420911F2D3091202D203259
:10278000310509F4EBC0C82FCF71B6CE993A09F4E0
:102790005CC19A3A09F0C4C10E9469078111D8CE80
:1027A0008091192D982F9076A3CE903A61F781E011
:1027B00080930E2280910720909108208093FA2127
:1027C00080910720909108209093FB2180912921EE
:1027D0008093FC2180912A218093FD2180916A00C1
:1027E0008093FE2180916B008093FF2160911F2DCB
:1027F0007091202D8DEE91E2B4D681E084CEC1306F
:1028000009F4B9C0C23009F07DCE80911A2D813013
:1028100009F4C5C1833009F015CF80911F2D909127
:10282000202D20911B2D30911C2D822B932B892B39
:1028300009F008CF80911D2DDBD780911D2D0E94BE
:102840004E1C811185CEC091192DCF7155CEC1304E
:1028500009F4BEC0C23009F055CE80911A2D811105
:10286000F1CE2230310509F0EDCE80911D2DD2D66A
:1028700090E08093122C9093132C62E070E082E140
:102880009CE26FD681E03FCE80911F2D9091202D4C
:10289000892B09F037CE62D68115A9F280911B2DC4
:1028A00090911C2DE0912E20F0912F20218930E075
:1028B0002817310540F22091182C2115E1F0E09104
:1028C000162CF091172C0190F081E02D2481211518
:1028D00091F0D0E08D2FF4DCDF5FE091162CF091C9
:1028E000172C0190F081E02D8481D81798F3809106
:1028F0001B2D90911C2D10921C2C10921D2C80933E
:10290000182C811509F424CE99278150904C880FFA
:10291000991F880F991FE0913020F0913120E80F26
:10292000F91FE093162CF093172C0190F081E02D05
:10293000848181110DC00CCECF5FE091162CF091F7
:10294000172C0190F081E02D8481C81708F000CE8B
:1029500060E08C2F0FDD8111EFCF75CF60E270E06A
:102960008CE291E2FED58FE993E08093252D909340
:10297000262D81E0C8CD8091182C90911A2D9B3086
:1029800009F02FCE20911F2D3091202D232B09F0FF
:1029900028CE811509F4B6CDC0911D2DD0911B2DE7
:1029A0008C2F8EDC811509F44ECF6D2F8C2FE2DC3D
:1029B00048CF80911F2D9091202D892B09F0A2CD19
:1029C0008BE591E18093252D9093262D81E09BCD81
:1029D0008091182C90911A2D9A3009F002CE213056
:1029E000310509F0FECD811509F48CCDC0911D2D66
:1029F000D0911E2D0091162C1091172CD801ED911D
:102A0000FC918481C81708F07DCD60E08C2F1EDC1E
:102A1000811509F418CFCE019927880F991FD80185
:102A20001296ED91FC91E80FF91F0190F081E02DD5
:102A300086819781FC01099580931A2C61E070E0F2
:102A40008AE19CE28ED581E05ECD60911F2D709170
:102A5000202D8DE091E285D581E055CD10920008C2
:102A600080911B2D90911C2D8093360890933708F0
:102A700080911D2D8F708093000860911F2D7091A3
:102A8000202D88E194E26DD580911F2D9091202D0D
:102A900020910E2030910F208217930709F458CD12
:102AA00080930E2090930F2080910A200E9482082C
:102AB00081E029CD20911B2D30911C2D2430310532
:102AC00009F432C1C0F42230310509F402C12330C7
:102AD000310509F0D4C083E00E94820881E013CD63
:102AE0000E948A0360911F2D7091202D8CE291E24B
:102AF00038D581E008CD2630310509F4FBC02730F8
:102B00003105E1F562E080E00E94B00780911D2D63
:102B100080680E94090887E00E94820881E0F3CC67
:102B200060911F2D7091202D8EE091E21AD581E0E9
:102B3000EACC8091EC2180938C21809114228093A7
:102B4000922180910A208093932160911F2D709192
:102B5000202D8CE891E205D581E0D5CC1092680952
:102B60001092690980911B2D8093132281E0CBCCB8
:102B700080911B2D8093240681E0C5CC2530310542
:102B800009F001CE60E080E00E94B00780911D2D29
:102B90000E94090885E00E94820881E0B4CC8091FF
:102BA0001F2D9091202D20911B2D30911C2D822BBB
:102BB000932B892B09F046CD80911D2D40D541CE18
:102BC0002130310509F09ECC61E070E088E19CE2A3
:102BD000C8D481E098CC20911B2D30911C2D832FDF
:102BE00099278330910509F463C0C8F581309105B8
:102BF00009F455C0029709F085CCE0912E20F091A0
:102C00002F208189281708F07DCCC9019927880FCA
:102C1000991F880F991FE0913020F0913120E80F23
:102C2000F91F80819181FC01628173819AD4E091C6
:102C3000212DF091222D82E0818380911F2D909192
:102C4000202D2091232D3091242D8217930708F0F9
:102C50007FCC8093232D9093242D81E054CC0F972B
:102C600009F050CC8091322090913320009709F4E4
:102C700049CCDC0112966D917C9173D4DECF232B6D
:102C800009F445C060E080E00E94B00780911D2DEE
:102C90000E94090881E00E94820881E034CC809182
:102CA0002E2090912F20DC016C9170E05AD4C5CF7A
:102CB000C9019927213009F454C082309105C9F126
:102CC000892B09F01FCC64E070E080E091E249D4E8
:102CD000B4CF61E081E00E94B00780911D2D0E9479
:102CE000090880911E2D0E941F0882E00E94820820
:102CF00081E009CC61E080E00E94B00780911D2D49
:102D00000E94090886E00E94820881E0FCCB60E016
:102D100080E00E94B00780911D2D0E94090880E08C
:102D20000E94820881E0EFCB84E00E94820881E06B
:102D3000EACB68E0EEEEF0E2AEEDB0E2AF01460FB6
:102D4000511D819190E08D939D934E175F07C9F7B8
:102D50006F5F660F6093DC2070E08CED90E201D431
:102D60006CCF67E0E7EFF0E2E7CF80911B2D909109
:102D70001C2D892B39F488ED91E0E9E7F0E0F89417
:102D800084BF90830E94750380E2ECE4F1E2ACE63C
:102D9000B1E201900D928A95E1F781E080936C2178
:102DA0000E94B4030E947503E6CFFC01CB01209181
:102DB000CF0127FDFCCF2091CC0128602093CC01CE
:102DC000BF01705FA0D78091CC01877F8093CC0139
:102DD0000895FC018091CF0187FDFCCFAF01405EDB
:102DE0005F4F2FEF3FE02E1B3F0B91918091CF0162
:102DF00087FDFCCF8091CC0188608093CC01D90104
:102E0000AE0FBF1F9C938091CC01877F8093CC0134
:102E1000E417F50751F70895CF939091CF0197FDEF
:102E2000FCCF20E2829FC00111241092C201909336
:102E3000C1018093C001C091CA0185E38093CA019A
:102E400061E08BEC91E00ED0C093CA01CF91089560
:102E50004091CA01E62FF72F8093CA0184914093D5
:102E6000CA0108951BBEFC0128ED24BF60830895AC
:102E70000F93E8ECF4E080818F7D808380818F7DEB
:102E80008083E0E6FDE202E005931092622D10924D
:102E9000632D00E2069300E40693E8E5FDE200E21C
:102EA000069300E40693E9E1FDE214861586168692
:102EB0001786128613861092182D0F9108950F937E
:102EC000CF93DF938091182D833009F45CC020915B
:102ED000142D3091152D8091232D9091242DEC01EE
:102EE000C21BD30B8217930749F1AE01420F531F48
:102EF000C034D10508F445C0A901405C5F4F80E0B3
:102F0000C0E4D0E080931E2CC093622DD093632D3B
:102F10008091212D9091222D820F931F8093642DFB
:102F20009093652D4093142D5093152DE0E6FDE20E
:102F300002E00693DF91CF910F9108958091162DB5
:102F40009091172D820F931F8093162D9093172D1C
:102F500040911F2D5091202D8417950711F18091DC
:102F60001E2C81111EC0E091272DF091282D309745
:102F7000A9F00995811120C02091142D3091152DB3
:102F8000A90181E0BFCFE091252DF091262D30974A
:102F900009F00995DF91CF910F916ACFA90181E0E6
:102FA000B1CF84E08093182DE8E5FDE202E00693BE
:102FB000DF91CF910F91089520E030E08091232D93
:102FC000C82F8091242DD82F90CF5F926F927F923F
:102FD0008F929F92AF92BF92CF92DF92EF92FF9229
:102FE0000F931F93CF93DF93582EC82FCF70D0E04D
:102FF000CC0FDD1F87FD21966E0122E0C21AD10899
:103000007E01EE0CFF1CEE0CFF1CEE0CFF1CF7010A
:10301000E45DF24DE5A5E770E150E73008F061C0EE
:10302000F0E0EE0FFF1FE05FFE4D80809180860193
:10303000000F111F000F111F000F111FF801EC0DE1
:10304000FD1DE05EF34DA580B680D701A45DB24DB5
:1030500057FC67C09E966D907C90808182FDC0C0B9
:10306000A60CB71CD801AC0DBD1DA05EB34D1596C6
:10307000AD92BC92169713968D919C9114978A15D8
:103080009B0598F515968D939C931697F701E45D33
:10309000F24D82A993A98C9180FF33C00C0D1D1DA8
:1030A000D801A05EB34D8C918E7F8C931796ED91D5
:1030B000FC911897309729F115966D917C91452DCB
:1030C00080E0DF91CF911F910F91FF90EF90DF9003
:1030D000CF90BF90AF909F908F907F906F905F90B8
:1030E0000994E8E08E2E912CA2CFF701E45DF24D19
:1030F00022A933A92615370509F48DC08C9180FDCE
:10310000CDCFDF91CF911F910F91FF90EF90DF9086
:10311000CF90BF90AF909F908F907F906F905F9077
:103120000895D2962D913C91D3972A0D3B1D25836E
:103130003683838194812817390709F43EC05C01E6
:10314000A21AB30AA11444E0B40640F0EFEFF3E092
:10315000CF01B401B1D55F01A81AB90AD801AC0DED
:10316000BD1DA05EB34D8C9181FD4CC090E00C0D57
:103170001D1DD801A05EB34D8C9190FB81F98C93FD
:10318000C701845D924DFC0112AA13AAA6A6B7A698
:1031900011968D919C91820F931FCC0FDD1FCC0F48
:1031A000DD1FCC0FDD1FC45AD24D88839983F701F0
:1031B000E85AF24D02E00693A4CF808181FF6CCFE4
:1031C0008D7F8083D2961D921C92D3979E961D92DE
:1031D0001C929F97F701E85AF24D02E0069391CFB7
:1031E0002181328183819481B40166D5452D41507E
:1031F000550BBA01615E734DAC01C9018A0D9B1D6F
:1032000082D52ECFC501B40157D5AC0191E0452B35
:1032100009F4ADCFABCFA816B90609F46FCF9C0166
:103220002A193B09211554E0350708F443C02FEF54
:1032300033E0C901B40140D5F901E81BF90BCF0116
:10324000F701E45DF24D16A617A60C0D1D1DD80161
:10325000A05EB34D88159905D8F48C9184608C9349
:10326000252D2150330BC901815E934DCC0FDD1FFD
:10327000CC0FDD1FCC0FDD1FC45AD24D888399833C
:1032800082AA93AAF701E85AF24D02E0069339CFD9
:1032900011962D913C912A0D3B1DCC0FDD1FCC0FBB
:1032A000DD1FCC0FDD1FC45AD24D2883398382AB7A
:1032B00093ABE8CFC901B401FFD4A901481B590B56
:1032C000CA01BECFEF92FF920F93CF93DF9380910D
:1032D000CC0480FD07C080E0DF91CF910F91FF907B
:1032E000EF90089581E08093CC04C8E5DDE2FE0113
:1032F00000E8069390E6E92E9DE2F92EF70100E83A
:1033000006938093CA04FE0100E106938091182D74
:10331000811529F08350823008F43AC0A9DD8091EC
:103320005A2D90915B2D089711F081E0D5CF88E060
:10333000E4EDFCE2A9E1BDE201900D928A95E1F78E
:103340008091C80480628093C8048091C804806220
:103350008093C804B5D8811521F18091192D87FD7E
:103360002DC080911F2D9091202D892B09F434C000
:103370001092162D1092172D1092142D1092152DBB
:1033800081E08093182DFE0102E0069381E0A4CF36
:10339000E091252DF091262D309709F4BFCF0995A6
:1033A000BDCF85E08093182DE1E6FDE204E00593B2
:1033B000E9E5FDE204E0059381E08ECF1092162D41
:1033C0001092172D1092142D1092152D82E08093DB
:1033D000182D75DD81E080CF83E08093182D109249
:1033E000622D1092632DF70102E0069381E074CF05
:1033F0009FB7F89480910C2E811521F181E0809384
:103400000C2E80E48093CA0480E28093CA048091E9
:10341000C10481608093C1048091C904826080935B
:10342000C9048091C80480648093C8048091C90451
:1034300081608093C9048091C80480688093C80427
:103440009FBF089580910A2C8F3F49F02FB7F894C1
:1034500080910A2C8F5F80930A2C2FBFCFCFFFCF94
:10346000CF931092600080E30E948C108091C00482
:1034700080648093C00481E080936000CFB7F894AB
:1034800080E090E0FC01EE0FFF1FEE0FFF1FEE0F3C
:10349000FF1FE45DF24D15A601968631910591F767
:1034A00080E090E0FC01EE0FFF1FEE0FFF1FEE0F1C
:1034B000FF1FE80FF91FE05EF34D20812E7F208370
:1034C00001968431910571F76AE170E082E0C0DC19
:1034D0008F3F09F48FE18093FA046BE170E082E0A2
:1034E000B7DC8F3F09F48FE18093FB048091C00427
:1034F0008A608093C0048091C00480688093C00477
:103500008091C00480618093C00488E59DE280932F
:10351000C6049093C7048091C00480628093C00465
:103520008FEF8093C5048091C80482608093C804A3
:1035300010920C2E80910E2C8F3F61F09FB7F89463
:1035400080910E2C8F5F80930E2C9FBF51DFCFBFD9
:10355000CF910895FFCF8093C30408958091C30451
:103560000895E9E1FDE28087918762877387089576
:103570009A01482F4F7050E0440F551FFA0187FD04
:103580003196EE0FFF1FEE0FFF1FEE0FFF1FDF0143
:10359000A45DB24D9D968C91803410F080E008952A
:1035A000637080EC613021F0625080E8623050F549
:1035B0002038310569F1B8F42032310539F1203471
:1035C000310561F48360E45DF24D15A696E094A7A1
:1035D00085A785A5806285A781E008952031310502
:1035E00091F78160F0CF211592E0390769F02F3F04
:1035F00093E0390711F48760E6CF2115314019F7C0
:103600008560E1CF80E4D4CF8660DDCF8260DBCF00
:103610008460D9CF282F2F7030E0220F331FF9019B
:1036200087FD3196EE0FFF1FEE0FFF1FEE0FFF1FFE
:10363000E45DF24D85A582FB882780F90895282F47
:103640002F7030E0220F331FF90187FD3196CF0133
:10365000EE0FFF1FEE0FFF1FEE0FFF1FE45DF24D99
:1036600025A522FF18C025A52B7F25A70297FC01C1
:10367000EE0FFF1FEE0FFF1FEE0FFF1FE80FF91FEA
:10368000E05EF34D808180FF06C08E7F80830780DF
:10369000F085E02D099581E00895EF92FF920F9358
:1036A0001F93CF93DF93E82FC9012E2F2F7030E0A7
:1036B000220F331F7E2F770F211D311DE901CC0F03
:1036C000DD1FCC0FDD1FCC0FDD1FDE01A45DB24D71
:1036D0009D967C919D97703408F460C09D967C9176
:1036E0009D97707C703C21F09D967C9172FD56C038
:1036F00022503109FFB7F8947901EE0CFF1CEE0C53
:10370000FF1CEE0CFF1CD701A20FB31FA05EB34D30
:103710007C9170FD42C071607C93FFBF11964C9309
:10372000119712965C93129713968D939C9314970E
:1037300015961D921C92169717960C93179718962C
:103740001C93611104C061E0009709F060E0D701AB
:10375000A20FB31FA05EB34D4C91497F660F6670F8
:10376000462B4C93E7FD22C0DE01A45DB24D9D9631
:103770004C919D97407C403CF1F0C45DD24D1EA61B
:103780001FA61AAA1BAA8E2F20DC81E0DF91CF9101
:103790001F910F91FF90EF900895FFBF80E0DF91A0
:1037A000CF911F910F91FF90EF900895C45DD24D7E
:1037B0001AAA1BAAE8CF9D96AC91A770A15068E009
:1037C00070E0A73068F078D2892BB9F2F701E20FE8
:1037D000F31FE05EF34D80818E7F808380E0DFCF3A
:1037E000B0E0AA0FBB1FA05FBE4D6D917C91EBCFE7
:1037F0000F93482F282F2F7030E0220F331F842F74
:10380000880F211D311DC9010297220F331F220F7E
:10381000331F220F331FF901E85AF24D02E00593DE
:10382000FC01EE0FFF1FEE0FFF1FEE0FFF1FE80F53
:10383000F91FE05EF34D808180FF12C08E7F808390
:103840000780F085E02D309759F0245D324DD90185
:1038500047FD08C09E966D917C9181E00F9109947F
:103860000F910895D2966D917C9181E00F9109940A
:10387000CF93C82FBDDF8C2F8F7090E0880F991FDA
:10388000FC01C7FD3196EE0FFF1FEE0FFF1FEE0F7D
:10389000FF1FE45DF24D15A6CF9108950F93E82F19
:1038A000EF70F0E0EE0FFF1F87FD3196EE0FFF1F68
:1038B000EE0FFF1FEE0FFF1FDF01A45DB24D9D96BF
:1038C0009C919D9794609D969C93E85AF24D01E0DF
:1038D00006938EDF81E00F9108951F920F920FB62D
:1038E0000F9211240F932F933F934F935F936F93F6
:1038F0007F938F939F93AF93BF93CF93EF93FF9358
:103900008091CB0487FD45C08091CB0482FD23C00C
:103910008091CB0481FD6BC08091CB0484FD41C0BC
:103920008091CB0486FD7BC08091CB0485FD83C054
:10393000FF91EF91CF91BF91AF919F918F917F9127
:103940006F915F914F913F912F910F910F900FBE0B
:103950000F901F90189584E08093CA048091602D89
:1039600086FFE6CF8091CC0481FDE2CFABDC8115F0
:10397000F9F68091182D813009F486C08430C1F6A3
:10398000E1E6FDE204E00593E9E5FDE204E00593EC
:10399000CFCF80E88093CA040E9430120E94210693
:1039A000C7CF80E18093CA04C1E08C2F21DF8C2F28
:1039B00080681EDFCF5FCA30C1F70E940B121092E1
:1039C000C3041092592D96E09093582D83E4809370
:1039D000592D1092612D9093602D8093612D84ED6F
:1039E0009CE280935C2D90935D2D42DAA1CF82E022
:1039F0008093CA048091582D86FF9ACF8091CC0481
:103A000081FD96CF5FDC811509F092CF8091182D52
:103A1000823009F445C0833009F08ACFB1CF80E409
:103A20008093CA0480910C2E811112C010920C2E2A
:103A30000E941F067DCF80E28093CA0480910C2EE5
:103A40008115A1F081E080930C2E0E94200670CF9A
:103A500080910A2C811549F09FB7F89480910A2C27
:103A6000815080930A2C9FBFE1CFFFCF80910A2C19
:103A70008F3F49F09FB7F89480910A2C8F5F809315
:103A80000A2C9FBFDFCFFFCF83E08093182D1092C9
:103A9000622D1092632DE0E6FDE202E0069348CF2E
:103AA00084E08093182DE8E5FDE202E0069340CF24
:103AB0001F920F920FB60F921124EF92FF920F9365
:103AC0001F932F933F934F935F936F937F938F93A6
:103AD0009F93AF93BF93CF93DF93EF93FF93809127
:103AE000CC0481FF4FC082E08093CC04E091C504F8
:103AF000C8E5DDE2E195EE0FCE018E1B9109FC01D8
:103B00008081918188559D42969587959695879558
:103B10009695879580FB879587F9E82FEF70F0E001
:103B2000EE0FFF1F87FD3196EE0FFF1FEE0FFF1FF9
:103B3000EE0FFF1FDF01A45DB24D9C969C9195FF97
:103B40000AC0E85AF24D00E20693811501F180386F
:103B500009F45FC03ADAFF91EF91DF91CF91BF9105
:103B6000AF919F918F917F916F915F914F913F9115
:103B70002F911F910F91FF90EF900F900FBE0F901C
:103B80001F9018959FDB811509F4ADCFE4CF80918C
:103B9000182D843009F469C0E0905A2DF0905B2D07
:103BA0002091232D3091242D8091142D9091152D4D
:103BB0008701080F191F2017310768F12091212D67
:103BC0003091222DA70164ED7CE2820F931F9BD0E0
:103BD0000093142D1093152D90E4E916F10461F172
:103BE0000093232D1093242DE091272DF091282D63
:103BF0003097B1F00995811113C085E08093182D9D
:103C0000E1E6FDE204E00593E9E5FDE204E0059369
:103C1000A2CF55D9A0CF7901E81AF90A8901CECFF0
:103C200083E08093182D1092622D1092632DE0E6B0
:103C3000FDE202E006938FCF8091162D9091172D13
:103C4000800F911F20911F2D3091202D82179307F7
:103C500008F0C6CF8091232D9091242D80179107D5
:103C600069F0FE0102E0069376CFE091252DF091F8
:103C7000262D309709F00995FBD86DCFE091272DBF
:103C8000F091282D309709F4B8CF0995811509F4E2
:103C9000B4CF8091162D9091172D2091142D309135
:103CA000152D820F931F8093162D9093172D109230
:103CB000142D1092152DD5CFAA1BBB1B51E107C0A7
:103CC000AA1FBB1FA617B70710F0A61BB70B881FAC
:103CD000991F5A95A9F780959095BC01CD0108953B
:103CE00097FB072E16F4009406D077FD08D0E4DF8A
:103CF00007FC05D03EF4909581959F4F08957095EF
:103D000061957F4F0895FB01DC0102C001900D9287
:0C3D100041505040D8F70895F894FFCFC0
:103D1C0040000CE02E0AFFFFFF01FF5580008000E1
:103D2C00CE10E910F110CB1000001B11E210F110B5
:103D3C00C81000000F11DA10F110C5100000C820D7
:103D4C00342000004020382024201A2010200000AD
:103D5C000902850003010080FA0904000000FFFF3E
:103D6C00FF000904000107FFFFFF00070581058024
:103D7C00000107058205800001070583058000010D
:103D8C0007058405800001070585058000010705EE
:103D9C00860580000107058905080001090401005A
:103DAC0000FFFFFF000904010102FFFFFF000705F0
:103DBC008705FF030107058A0508000109040200B5
:103DCC0000FFFFFF000904020101FFFFFF000705D0
:103DDC0088024000000000001201000200000040B8
:103DEC00EB0394BA00020102000100000003000082
:103DFC0000000000000000000000000000004C610A
:103E0C00627261646F72004573706F54656B000071
:103E1C0004030904646562756731323300030C00D6
:0E3E2C00100020004000800000010002FF0393
:00000001FF
